:020000040800F2
:1000000000500020B9060008210500082905000855
:10001000310500083905000841050008000000000E
:10002000000000000000000000000000912B00080C
:100030004905000800000000712D00085505000862
:100040000107000801070008010700080107000870
:100050000107000801070008010700080107000860
:100060000107000801070008010700080107000850
:100070000107000801070008010700080107000840
:100080000107000801070008010700080107000830
:100090000107000801070008010700080107000820
:1000A0000107000801070008010700080107000810
:1000B0000107000801070008010700080107000800
:1000C00001070008010700080107000801070008F0
:1000D00001070008010700080107000801070008E0
:1000E00001070008010700080107000800000000E0
:1000F0000000000000000000000000000000000000
:0C01000000000000000000005FF808F1A3
:1001100010B5054C237833B9044B13B10448AFF341
:1001200000800123237010BD6C000020000000003F
:100130002441000808B5034B1BB103490348AFF342
:10014000008008BD0000000070000020244100086D
:1001500080B485B000AFF860B9607A60FB68064A89
:100160001A60BB68054A1A607B6880221A6000BF6B
:100170001437BD4680BC704788000020DC0000209A
:10018000B0B596B000AF00F0BDFA00F04BF800F04B
:10019000B9F800F08DF81D4B07F13C041D460FCD5A
:1001A0000FC495E8070084E8070007F13C0300212D
:1001B000184601F09EFA0346154A1360154B07F1E5
:1001C00020041D460FCD0FC495E8070084E8070002
:1001D00007F120030021184601F08BFA03460E4A6E
:1001E00013600E4B3C1D1D460FCD0FC495E8070054
:1001F00084E807003B1D0021184601F07AFA034607
:10020000074A136001F05EFA00BFFDE744410008B1
:10021000240300206C4100082803002094410008BA
:100220002C03002080B590B000AF07F118032822FE
:100230000021184603F047F93B1D00221A605A605E
:100240009A60DA601A610123BB614FF48033FB616D
:1002500000233B620123BB6202237B634FF48033A4
:10026000BB634FF4E013FB6307F11803184600F07B
:1002700013FD0346002B01D000F0C8F80F237B606C
:100280000223BB600023FB604FF480633B610023CB
:100290007B613B1D0221184600F080FF0346002BC6
:1002A00001D000F0B3F800BF4037BD4680BD00006C
:1002B00080B500AF114B124A1A60104B4FF4E13277
:1002C0005A600E4B00229A600C4B0022DA600B4BF6
:1002D00000221A61094B0C225A61084B4FF44072FC
:1002E0009A61064B0022DA61044801F0E5F8034602
:1002F000002B01D000F08AF800BF80BDDC02002096
:100300000038014080B483B000AF0E4B9B690D4AAA
:1003100043F0200393610B4B9B6903F020037B6048
:100320007B68084B9B69074A43F004039361054BC4
:100330009B6903F004033B603B6800BF0C37BD467C
:1003400080BC70470010024080B584B000AF786078
:1003500001F0BFF9F860094B1B68FA68D31ABB605B
:10036000BA68F968064803F059F8044AFB68136054
:100370004FF47A7001F009FA00BFE9E73403002076
:10038000B041000880B586B000AF7860094B1968AD
:1003900007F108034FF0FF32184601F00BFABB6873
:1003A000102BF3D1FB687B617969034803F036F8C1
:1003B000ECE700BF30030020D441000880B582B0D4
:1003C00000AF78600E4B1B6801330D4A13600C4B75
:1003D0001A6813090B49A1FB0313DB094CF25031D6
:1003E00001FB03F3D31A002B05D1054B1B681946FB
:1003F000054803F013F8012001F0C7F9E2E700BF58
:1004000038030020C55A7C0AEC41000880B400AFD4
:1004100072B600BF00BFFDE780B584B000AF184BD7
:100420009B69174A43F001039361154B9B6903F0E5
:100430000103BB60BB68124BDB69114A43F0805378
:10044000D3610F4BDB6903F080537B607B68002234
:100450000F216FF0010000F072FA0A4B5B68FB603D
:10046000FB6823F0E063FB60FB6843F08063FB60A4
:10047000044AFB68536000BF1037BD4680BD00BF13
:10048000001002400000014080B588B000AF7860E5
:1004900007F1100300221A605A609A60DA607B68E4
:1004A0001B681C4A934231D11B4B9B691A4A43F487
:1004B00080439361184B9B6903F48043FB60FB68A6
:1004C000154B9B69144A43F004039361124B9B69DB
:1004D00003F00403BB60BB684FF490533B610223FD
:1004E0007B610323FB6107F1100319460B4800F001
:1004F0004FFA4FF440633B6100237B610023BB61F3
:1005000007F110031946054800F042FA00BF2037F2
:10051000BD4680BD00380140001002400008014087
:1005200080B400AF00BFFDE780B400AF00BFFDE7BF
:1005300080B400AF00BFFDE780B400AF00BFFDE7AF
:1005400080B400AF00BFFDE780B400AF00BFBD4680
:1005500080BC704780B500AF00F01AF902F038FA9D
:100560000346012B01D002F027FC00BF80BD80B5FF
:1005700086B000AFF860B9607A6000237B610AE062
:10058000AFF300800146BB685A1CBA60CAB21A7049
:100590007B6901337B617A697B689A42F0DB7B6817
:1005A00018461837BD4680BD80B586B000AFF860EC
:1005B000B9607A6000237B6109E0BB685A1CBA60AD
:1005C0001B781846AFF300807B6901337B617A6941
:1005D0007B689A42F1DB7B6818461837BD4680BDC0
:1005E00080B483B000AF78604FF0FF3318460C370B
:1005F000BD4680BC704780B483B000AF786039607E
:100600003B684FF400525A60002318460C37BD4631
:1006100080BC704780B483B000AF78600123184677
:100620000C37BD4680BC704780B485B000AFF86021
:10063000B9607A60002318461437BD4680BC704705
:1006400080B586B000AF7860144A154BD31A7B6131
:100650007B693B61134B1B68002B02D1114B124A83
:100660001A60104B1A687B6813443A699A4207D2A1
:1006700002F078FF03460C221A604FF0FF3309E0C6
:10068000084B1B68FB60074B1A687B681344054ADC
:100690001360FB6818461837BD4680BD0050002027
:1006A000000400003C030020E811002080B400AFEB
:1006B00000BFBD4680BC7047FFF7F8FF0B480C49F0
:1006C0000C4A002302E0D458C4500433C4188C42AE
:1006D000F9D3094A094C002301E013600432A24215
:1006E000FBD302F045FFFFF74BFD704700000020F1
:1006F0006C000020704200086C000020E411002013
:10070000FEE7000080B500AF084B1B68074A43F0C6
:1007100010031360032000F007F90F2000F008F821
:10072000FFF77AFE0023184680BD00BF002002407C
:1007300080B582B000AF7860124B1A68124B1B78FC
:1007400019464FF47A73B3FBF1F3B2FBF3F3184697
:1007500000F011F90346002B01D001230EE07B6865
:100760000F2B0AD8002279684FF0FF3000F0E7F82D
:10077000064A7B681360002300E00123184608370F
:10078000BD4680BD000000200800002004000020BD
:1007900080B400AF054B1B781A46054B1B68134409
:1007A000034A136000BFBD4680BC704708000020AC
:1007B0004003002080B400AF024B1B681846BD46C2
:1007C00080BC70474003002080B485B000AF7860E3
:1007D0007B6803F00703FB600C4BDB68BB60BA6807
:1007E0004FF6FF031340BB60FB681A02BB6813435C
:1007F00043F0BF6343F40033BB60044ABB68D3607B
:1008000000BF1437BD4680BC704700BF00ED00E05C
:1008100080B400AF044BDB681B0A03F007031846E3
:10082000BD4680BC704700BF00ED00E080B483B0DF
:1008300000AF03463960FB7197F90730002B0ADBE4
:100840003B68DAB20C4997F907301201D2B20B4477
:1008500083F800230AE03B68DAB20849FB7903F029
:100860000F03043B1201D2B20B441A7600BF0C37BF
:10087000BD4680BC704700BF00E100E000ED00E035
:1008800080B489B000AFF860B9607A60FB6803F0AB
:100890000703FB61FB69C3F10703042B28BF042393
:1008A000BB61FB690433062B02D9FB69033B00E003
:1008B00000237B614FF0FF32BB6902FA03F3DA4396
:1008C000BB681A407B699A404FF0FF317B6901FA9F
:1008D00003F3D9437B680B40134318462437BD46C6
:1008E00080BC704780B582B000AF78607B68013B08
:1008F000B3F1807F01D301230FE00A4A7B68013BFB
:1009000053600F214FF0FF30FFF790FF054B00229F
:100910009A60044B07221A60002318460837BD4628
:1009200080BD00BF10E000E080B582B000AF78600D
:100930007868FFF749FF00BF0837BD4680BD80B526
:1009400086B000AF0346B9607A60FB7300237B6119
:10095000FFF75EFF78617A68B9687869FFF790FF02
:10096000024697F90F3011461846FFF75FFF00BFA8
:100970001837BD4680BD80B582B000AF786078681A
:10098000FFF7B0FF034618460837BD4680BD00009C
:1009900080B48BB000AF7860396000237B620023A5
:1009A0003B6269E101227B6A02FA03F3FB613B6867
:1009B0001B68FA691340BB61BA69FB699A4240F04F
:1009C00058813B685B689A4A93425ED0984A93424A
:1009D00075D8984A934258D0964A93426FD8964A0F
:1009E000934252D0944A934269D8944A93424CD04D
:1009F000924A934263D8924A934246D0904A934295
:100A00005DD8122B2AD8122B59D801A252F823F004
:100A10008B0A0008650A0008770A0008B90A00086E
:100A2000BF0A0008BF0A0008BF0A0008BF0A000882
:100A3000BF0A0008BF0A0008BF0A0008BF0A000872
:100A4000BF0A0008BF0A0008BF0A0008BF0A000862
:100A5000BF0A00086D0A0008810A0008794A93421B
:100A600013D02CE03B68DB683B6229E03B68DB6825
:100A700004333B6224E03B68DB6808333B621FE0E1
:100A80003B68DB680C333B621AE03B689B68002BD9
:100A900002D104233B6213E03B689B68012B05D124
:100AA00008233B627B68FA691A6109E008233B620C
:100AB0007B68FA695A6103E000233B6200E000BFF3
:100AC000BB69FF2B01D87B6801E07B6804337B6145
:100AD000BB69FF2B02D87B6A9B0002E07B6A083B64
:100AE0009B003B617B691A680F213B6901FA03F3A4
:100AF000DB431A40396A3B6901FA03F31A437B6905
:100B00001A603B685B6803F08053002B00F0B180F3
:100B10004D4B9B694C4A43F0010393614A4B9B69DF
:100B200003F00103BB60BB68484A7B6A9B08023341
:100B300052F82330FB607B6A03F003039B000F2213
:100B400002FA03F3DB43FA681340FB607B68404A18
:100B5000934213D07B683F4A93420DD07B683E4A54
:100B6000934207D07B683D4A934201D1032306E0BC
:100B7000042304E0022302E0012300E000237A6A58
:100B800002F0030292009340FA681343FB602F497E
:100B90007B6A9B080233FA6841F823203B685B6854
:100BA00003F48013002B06D02D4B9A682C49BB69A7
:100BB00013438B6006E02A4B9A68BB69DB432849E4
:100BC00013408B603B685B6803F40013002B06D076
:100BD000234BDA682249BB691343CB6006E0204B04
:100BE000DA68BB69DB431E491340CB603B685B6836
:100BF00003F40033002B06D0194B5A681849BB691F
:100C000013434B6006E0164B5A68BB69DB4314493B
:100C100013404B603B685B6803F48033002B21D0AA
:100C20000F4B1A680E49BB6913430B6021E000BFEC
:100C300000003210000031100000221000002110CE
:100C400000001210000011100010024000000140CE
:100C500000080140000C0140001001400014014058
:100C6000000401400B4B1A68BB69DB430949134080
:100C70000B607B6A01337B623B681A687B6A22FAED
:100C800003F3002B7FF48EAE00BF00BF2C37BD46B0
:100C900080BC70470004014080B586B000AF78602A
:100CA0007B68002B01D1012372E27B681B6803F093
:100CB0000103002B00F08780924B5B6803F00C036C
:100CC000042B0CD08F4B5B6803F00C03082B12D164
:100CD0008C4B5B6803F48033B3F5803F0BD1894BB9
:100CE0001B6803F40033002B6CD07B685B68002B1F
:100CF00068D101234CE27B685B68B3F5803F06D185
:100D0000804B1B687F4A43F4803313602EE07B687E
:100D10005B68002B0CD17B4B1B687A4A23F4803331
:100D20001360784B1B68774A23F4802313601DE01F
:100D30007B685B68B3F5A02F0CD1724B1B68714ABE
:100D400043F4802313606F4B1B686E4A43F4803377
:100D500013600BE06B4B1B686A4A23F4803313600B
:100D6000684B1B68674A23F4802313607B685B68C9
:100D7000002B13D0FFF71EFD386108E0FFF71AFDC6
:100D800002463B69D31A642B01D9032300E25D4B71
:100D90001B6803F40033002BF0D014E0FFF70AFDCA
:100DA000386108E0FFF706FD02463B69D31A642B61
:100DB00001D90323ECE1534B1B6803F40033002BF0
:100DC000F0D100E000BF7B681B6803F00203002B3A
:100DD00063D04C4B5B6803F00C03002B0BD0494BEA
:100DE0005B6803F00C03082B1CD1464B5B6803F4D3
:100DF0008033002B16D1434B1B6803F00203002BFA
:100E000005D07B681B69012B01D00123C0E13D4B5C
:100E10001B6823F0F8027B685B69DB0039491343E8
:100E20000B603AE07B681B69002B20D0364B012217
:100E30001A60FFF7BFFC386108E0FFF7BBFC024611
:100E40003B69D31A022B01D90323A1E12D4B1B6867
:100E500003F00203002BF0D02A4B1B6823F0F802AA
:100E60007B685B69DB00274913430B6015E0264B69
:100E700000221A60FFF79EFC386108E0FFF79AFC39
:100E800002463B69D31A022B01D9032380E11D4B93
:100E90001B6803F00203002BF0D17B681B6803F092
:100EA0000803002B3AD07B689B69002B19D0174BA5
:100EB00001221A60FFF77EFC386108E0FFF77AFC38
:100EC00002463B69D31A022B01D9032360E10D4B83
:100ED0005B6A03F00203002BF0D0012000F0CEFA91
:100EE0001CE00A4B00221A60FFF764FC38610FE037
:100EF000FFF760FC02463B69D31A022B08D9032393
:100F000046E100BF0010024000004242800442421D
:100F1000924B5B6A03F00203002BE9D17B681B68EC
:100F200003F00403002B00F0A6800023FB758B4B1D
:100F3000DB6903F08053002B0DD1884BDB69874AB6
:100F400043F08053D361854BDB6903F08053BB6072
:100F5000BB680123FB75824B1B6803F48073002B75
:100F600018D17F4B1B687E4A43F480731360FFF7F0
:100F700021FC386108E0FFF71DFC02463B69D31AEB
:100F8000642B01D9032303E1754B1B6803F48073C1
:100F9000002BF0D07B68DB68012B06D16F4B1B6AFE
:100FA0006E4A43F0010313622DE07B68DB68002B7F
:100FB0000CD16A4B1B6A694A23F001031362674B29
:100FC0001B6A664A23F0040313621CE07B68DB683B
:100FD000052B0CD1614B1B6A604A43F0040313627A
:100FE0005E4B1B6A5D4A43F0010313620BE05B4BEF
:100FF0001B6A5A4A23F001031362584B1B6A574A73
:1010000023F0040313627B68DB68002B15D0FFF725
:10101000D1FB38610AE0FFF7CDFB02463B69D31AEA
:1010200041F28832934201D90323B1E04B4B1B6A52
:1010300003F00203002BEED014E0FFF7BBFB386196
:101040000AE0FFF7B7FB02463B69D31A41F2883248
:10105000934201D903239BE0404B1B6A03F0020338
:10106000002BEED1FB7D012B05D13C4BDB693B4ACC
:1010700023F08053D3617B68DB69002B00F087800D
:10108000364B5B6803F00C03082B61D07B68DB698F
:10109000022B46D1334B00221A60FFF78BFB3861DD
:1010A00008E0FFF787FB02463B69D31A022B01D900
:1010B00003236DE0294B1B6803F00073002BF0D174
:1010C0007B681B6AB3F5803F08D1244B5B6823F42F
:1010D00000327B689B68214913434B601F4B5B6860
:1010E00023F474127B68196A7B685B6A0B431B49A3
:1010F00013434B601B4B01221A60FFF75BFB386107
:1011000008E0FFF757FB02463B69D31A022B01D9CF
:1011100003233DE0114B1B6803F00073002BF0D05C
:1011200035E0104B00221A60FFF744FB386108E0FD
:10113000FFF740FB02463B69D31A022B01D9032378
:1011400026E0064B1B6803F00073002BF0D11EE075
:101150007B68DB69012B07D1012319E000100240F5
:1011600000700040600042420B4B5B68FB60FB6814
:1011700003F480327B681B6A9A4206D1FB6803F451
:1011800070127B685B6A9A4201D0012300E0002361
:1011900018461837BD4680BD0010024080B584B0A7
:1011A00000AF786039607B68002B01D10123D0E06B
:1011B0006A4B1B6803F007033A689A4210D9674BE1
:1011C0001B6823F0070265493B6813430B60634BC0
:1011D0001B6803F007033A689A4201D00123B8E084
:1011E0007B681B6803F00203002B20D07B681B6820
:1011F00003F00403002B05D0594B5B68584A43F4B5
:10120000E06353607B681B6803F00803002B05D084
:10121000534B5B68524A43F460535360504B5B68D6
:1012200023F0F0027B689B684D4913434B607B6859
:101230001B6803F00103002B40D07B685B68012B27
:1012400007D1474B1B6803F40033002B15D1012352
:101250007FE07B685B68022B07D1414B1B6803F082
:101260000073002B09D1012373E03D4B1B6803F091
:101270000203002B01D101236BE0394B5B6823F0A3
:1012800003027B685B68364913434B60FFF792FAB1
:10129000F8600AE0FFF78EFA0246FB68D31A41F2C3
:1012A0008832934201D9032353E02D4B5B6803F04E
:1012B0000C027B685B689B009A42EBD1274B1B6852
:1012C00003F007033A689A4210D2244B1B6823F0BC
:1012D000070222493B6813430B60204B1B6803F055
:1012E00007033A689A4201D0012332E07B681B6809
:1012F00003F00403002B08D0194B5B6823F4E06271
:101300007B68DB68164913434B607B681B6803F0FE
:101310000803002B09D0124B5B6823F460527B68F2
:101320001B69DB000E4913434B6000F021F80246B5
:101330000B4B5B681B0903F00F030A49CB5C22FAD5
:1013400003F3094A1360094B1B681846FFF7F0F9CD
:10135000002318461037BD4680BD00BF0020024064
:101360000010024008420008000000200400002095
:1013700080B487B000AF0023FB600023BB60002374
:101380007B6100237B6000233B611E4B5B68FB603D
:10139000FB6803F00C03042B02D0082B03D027E0DA
:1013A000194B3B6127E0FB689B0C03F00F03174AC6
:1013B000D35C7B60FB6803F48033002B10D0114BAF
:1013C0005B685B0C03F00103114AD35CBB607B6874
:1013D0000D4A03FB02F2BB68B2FBF3F37B6104E04E
:1013E0007B680C4A02FB03F37B617B693B6102E093
:1013F000054B3B6100BF3B6918461C37BD4680BCAE
:10140000704700BF0010024000127A00204200081E
:101410003042000800093D0080B400AF024B1B6859
:101420001846BD4680BC70470000002080B500AF64
:10143000FFF7F2FF0246054B5B681B0A03F0070348
:101440000349CB5C22FA03F3184680BD001002402A
:101450001842000880B500AFFFF7DEFF0246054BDB
:101460005B68DB0A03F007030349CB5C22FA03F352
:10147000184680BD001002401842000880B485B0B4
:1014800000AF78600A4B1B680A4AA2FB03235B0A81
:101490007A6802FB03F3FB6000BFFB685A1EFA6028
:1014A000002BF9D100BF00BF1437BD4680BC704788
:1014B00000000020D34D621080B582B000AF78608C
:1014C0007B68002B01D1012342E07B6893F8413017
:1014D000DBB2002B06D17B68002283F840207868BD
:1014E000FEF7D2FF7B68242283F841207B681B68CB
:1014F000DA687B681B6822F40052DA60786800F0D2
:101500002BF87B681B681A697B681B6822F4904281
:101510001A617B681B685A697B681B6822F02A0283
:101520005A617B681B68DA687B681B6842F400526A
:10153000DA607B6800225A647B68202283F84120AD
:101540007B68202283F842207B6800225A630023B4
:1015500018460837BD4680BD80B584B000AF7860BE
:101560007B681B681B6923F440517B68DA687B68E1
:101570001B680A431A617B689A687B681B691A4377
:101580007B685B691343BB607B681B68DB6823F483
:10159000B05323F00C037A681268B9680B43D36028
:1015A0007B681B685B6923F440717B689A697B6880
:1015B0001B680A435A617B681B682C4A934203D11B
:1015C000FFF748FFF86002E0FFF730FFF860FA68C5
:1015D00013469B0013449A001A447B685B689B0087
:1015E000B2FBF3F3224AA2FB03235B091901FA6859
:1015F00013469B0013449A001A447B685B689B0067
:10160000B2FBF3F21A4BA3FB02035B09642000FB5D
:1016100003F3D31A1B013233154AA2FB03235B09E0
:1016200003F0F0031944FA6813469B0013449A0030
:101630001A447B685B689B00B2FBF3F20C4BA3FB84
:1016400002035B09642000FB03F3D31A1B0132334E
:10165000074AA2FB03235B0903F00F027B681B68A8
:101660000A449A6000BF1037BD4680BD0038014073
:101670001F85EB5180B485B000AF0346FB8000238B
:10168000FB60B7F90630842B05D0B7F90620FB685C
:1016900013440333FB60FB6818461437BD4680BC17
:1016A000704780B483B000AFEFF305837B607B6845
:1016B000002B14BF01230023DBB218460C37BD46B4
:1016C00080BC704780B500AF00F058FD002318467D
:1016D00080BD80B500AFFFF7E4FF0346002B03D0C9
:1016E00000F068FE034602E000F056FE034618468E
:1016F00080BDF0B589B004AF786039607B685B6904
:10170000002B20D07B689B69002B1CD07B685C6819
:101710007B681D687B681E697B68B3F908301846D2
:10172000FFF7A8FF01467B685B697A6892690292BD
:10173000019300913B6832462946204600F050FB59
:101740000346FB601CE07B685C687B681D687B6807
:101750001B699EB27B68B3F908301846FFF78AFF11
:10176000024607F10C03019300923B68324629467A
:10177000204600F095FB0346012B01D0002300E03A
:10178000FB6818461437BD46F0BD80B584B000AF85
:1017900078607B68FB60FB68002B01D0FB6800E091
:1017A0000123184600F0B4FC002318461037BD464C
:1017B00080BD000090B58BB000AFF860B9607A6072
:1017C000BB68FB610023BB61BB68002B0AD180238F
:1017D0007B61FB681C4607F1140393E8070084E86B
:1017E000070054E000233B6200237B627B68B3F177
:1017F000FF3F03D14FF0FF337B6209E07B68002B92
:1018000006D07B687B627B6A002B01D101237B625F
:10181000FFF747FF0346002B1CD007F1200207F11A
:10182000140304331946B86800F0CAF90346012BC3
:1018300002D110237B6101E000237B613B6A002B16
:101840001DD0154B4FF080521A60BFF34F8FBFF37E
:101850006F8F14E007F1140304337A6A1946B868ED
:1018600000F0CCF80346012B02D110237B6106E087
:101870007B6A002B01D1002300E040237B61FB68E1
:101880001C4607F1140393E8070084E80700F86892
:101890002C37BD4690BD00BF04ED00E080B483B09E
:1018A00000AF78607B6803F108027B685A607B6850
:1018B0004FF0FF329A607B6803F108027B68DA60C0
:1018C0007B6803F108027B681A617B6800221A605A
:1018D00000BF0C37BD4680BC704780B483B000AFFA
:1018E00078607B6800221A6100BF0C37BD4680BC5F
:1018F000704780B485B000AF786039607B685B6802
:10190000FB603B68FA685A60FB689A683B689A60BB
:10191000FB689B683A685A60FB683A689A603B6863
:101920007A681A617B681B685A1C7B681A6000BF62
:101930001437BD4680BC704780B485B000AF786076
:1019400039603B681B68BB60BB68B3F1FF3F03D1E4
:101950007B681B69FB600CE07B680833FB6002E07E
:10196000FB685B68FB60FB685B681B68BA689A424F
:10197000F6D2FB685A683B685A603B685B683A6815
:101980009A603B68FA689A60FB683A685A603B68FC
:101990007A681A617B681B685A1C7B681A6000BFF2
:1019A0001437BD4680BC704780B485B000AF786006
:1019B0007B681B69FB607B685B687A6892689A60E9
:1019C0007B689B687A6852685A60FB685B687A68D3
:1019D0009A4203D17B689A68FB685A607B68002250
:1019E0001A61FB681B685A1EFB681A60FB681B685B
:1019F00018461437BD4680BC7047000080B58CB0D7
:101A000000AFF860B9607A600023FB62FB68BB62DC
:101A1000BB6A002B0BD14FF0500383F31188BFF347
:101A20006F8FBFF34F8F3B6200BF00BFFDE7BB6806
:101A3000002B03D1BB6A1B6C002B01D1012300E0FA
:101A40000023002B0BD14FF0500383F31188BFF319
:101A50006F8FBFF34F8FFB6100BF00BFFDE700F04A
:101A6000B7FF0346002B02D17B68002B01D1012375
:101A700000E00023002B0BD14FF0500383F31188BB
:101A8000BFF36F8FBFF34F8FBB6100BF00BFFDE798
:101A900001F014F9BB6A9B6B7B627B6A002B1FD041
:101AA000B968B86A00F00EF97B6A5A1EBB6A9A637D
:101AB000BB6A1B69002B0FD0BB6A1033184600F0BD
:101AC000C7FD0346002B07D03C4B4FF080521A60F5
:101AD000BFF34F8FBFF36F8F01F020F9012369E04F
:101AE0007B68002B03D101F019F9002362E0FB6A47
:101AF000002B06D107F11003184600F00DFE01235C
:101B0000FB6201F00BF900F09BFB01F0D7F8BB6A18
:101B100093F844305BB2B3F1FF3F03D1BB6A0022BC
:101B200083F84420BB6A93F845305BB2B3F1FF3FC2
:101B300003D1BB6A002283F8452001F0EFF83A1D7B
:101B400007F110031146184600F0FCFD0346002B78
:101B500023D1B86A00F02EF90346002B17D0BB6AD8
:101B600024337A681146184600F04CFDB86A00F03C
:101B7000CFF800F073FB0346002B89D10F4B4FF0D9
:101B800080521A60BFF34F8FBFF36F8F80E7B86A40
:101B900000F0BEF800F062FB7AE7B86A00F0B8F82F
:101BA00000F05CFBB86A00F005F90346002B3FF437
:101BB0006FAF002318463037BD4680BD04ED00E00E
:101BC00080B58EB000AFF860B9607A60FB683B63A7
:101BD0003B6B002B0BD14FF0500383F31188BFF305
:101BE0006F8FBFF34F8F3B6200BF00BFFDE7BB6845
:101BF000002B03D13B6B1B6C002B01D1012300E0B8
:101C00000023002B0BD14FF0500383F31188BFF357
:101C10006F8FBFF34F8FFB6100BF00BFFDE701F087
:101C20000FF9EFF311824FF0500383F31188BFF3E4
:101C30006F8FBFF34F8FBA617B61BB69FB623B6BF8
:101C40009B6BBB62BB6A002B2FD03B6B93F844307D
:101C500087F82730B968386B00F034F8BB6A5A1E31
:101C60003B6B9A6397F92730B3F1FF3F12D13B6B7F
:101C70001B69002B16D03B6B1033184600F0E8FCB4
:101C80000346002B0ED07B68002B0BD07B68012213
:101C90001A6007E097F827300133DBB25AB23B6B8A
:101CA00083F8442001237B6301E000237B63FB6A0C
:101CB0003B613B6983F3118800BF7B6B1846383763
:101CC000BD4680BD80B582B000AF786039607B686A
:101CD0001B6C002B18D07B68DA687B681B6C1A447D
:101CE0007B68DA607B68DA687B689B689A4203D31A
:101CF0007B681A687B68DA607B68D9687B681B6CD4
:101D00001A46386801F05BFC00BF0837BD4680BD4D
:101D100080B584B000AF786000F0D0FF7B6893F8A6
:101D20004530FB7311E07B685B6A002B12D07B6847
:101D30002433184600F08CFC0346002B01D000F041
:101D400065FDFB7B013BDBB2FB7397F90F30002B8A
:101D5000E9DC00E000BF7B68FF2283F8452000F04B
:101D6000DDFF00F0ABFF7B6893F84430BB7311E0FC
:101D70007B681B69002B12D07B681033184600F07B
:101D800067FC0346002B01D000F040FDBB7B013B0C
:101D9000DBB2BB7397F90E30002BE9DC00E000BF2B
:101DA0007B68FF2283F8442000F0B8FF00BF1037A3
:101DB000BD4680BD80B584B000AF786000F07EFF86
:101DC0007B689B6B002B02D10123FB6001E00023A9
:101DD000FB6000F0A3FFFB6818461037BD4680BDCE
:101DE00080B58EB004AFF860B9607A603B607B6B01
:101DF000002B0BD14FF0500383F31188BFF36F8F8B
:101E0000BFF34F8F3B6200BF00BFFDE7BB6B002BF2
:101E10000BD14FF0500383F31188BFF36F8FBFF3E3
:101E20004F8FFB6100BF00BFFDE754233B613B695F
:101E3000542B0BD04FF0500383F31188BFF36F8FF7
:101E4000BFF34F8FBB6100BF00BFFDE73B69BB6BBA
:101E5000002B1ED07B6B002B1BD0BB6B7B627B6A85
:101E60007A6B1A637B6A022283F851200023039362
:101E70007B6A029307F1140301933B6B00933B6869
:101E80007A68B968F86800F050F8786A00F0D6F817
:101E900001E000237B617B6918462837BD4680BD81
:101EA00080B58CB004AFF860B9603B601346FB802E
:101EB000FB889B00184601F003F878617B69002BD2
:101EC0000ED0542000F0FCFFF861FB69002B03D01A
:101ED000FB697A691A6305E0786901F0BFF801E0EF
:101EE0000023FB61FB69002B17D0FB69002283F8FC
:101EF0005120FA8800230393FB690293FB6A019344
:101F0000BB6A00933B68B968F86800F00EF8F8699E
:101F100000F094F80123BB6102E04FF0FF33BB6196
:101F2000BB6918462037BD4680BD80B588B000AF7C
:101F3000F860B9607A603B603B6B1A6B7B6803F1B9
:101F40008043013B9B001344BB61BB6923F0070343
:101F5000BB61BB6903F00703002B0BD04FF05003AC
:101F600083F31188BFF36F8FBFF34F8F7B6100BF87
:101F700000BFFDE7BB68002B1FD00023FB6112E010
:101F8000BA68FB69134419783A6BFB69134434331C
:101F90000A461A70BA68FB6913441B78002B06D0F6
:101FA000FB690133FB61FB690F2BE9D900E000BF3E
:101FB0003B6B002283F8432003E03B6B002283F855
:101FC0003420BB6A062B01D90623BB623B6BBA6A7D
:101FD000DA623B6BBA6A5A643B6B00229A643B6BD1
:101FE00004331846FFF779FC3B6B18331846FFF7AC
:101FF00074FC3B6B3A6B1A61BB6AC3F107023B6B23
:102000009A613B6B3A6B5A623B6B0022DA643B6B22
:10201000002283F850203A68F968B86900F05CFD46
:1020200002463B6B1A60FB6A002B02D0FB6A3A6BDC
:102030001A6000BF2037BD4680BD000080B582B069
:1020400000AF786000F03AFE2A4B1B680133294A42
:102050001360294B1B68002B09D1274A7B6813604A
:10206000244B1B68012B10D100F0F4FB0DE0234B37
:102070001B68002B09D1204B1B68DA6A7B68DB6A7E
:102080009A4202D81C4A7B6813601D4B1B680133BF
:102090001B4A13607B68DB6A01229A40194B1B685C
:1020A0001343184A13607B68DA6A13469B00134493
:1020B0009B00154A1A447B68043319461046FFF703
:1020C00018FC00F02BFE0D4B1B68002B0ED00A4BAA
:1020D0001B68DA6A7B68DB6A9A4207D20B4B4FF0C7
:1020E00080521A60BFF34F8FBFF36F8F00BF083766
:1020F000BD4680BD4404002044030020500400205D
:10210000600400204C0400204803002004ED00E09F
:1021100080B584B000AF78600023FB607B68002B43
:1021200018D0144B1B68002B0BD04FF0500383F3D7
:102130001188BFF36F8FBFF34F8FBB6000BF00BF2D
:10214000FDE700F07DF80021786800F05FFC00F00A
:1021500085F8F860FB68002B07D1074B4FF08052E1
:102160001A60BFF34F8FBFF36F8F00BF1037BD46AC
:1021700080BD00BF6C04002004ED00E080B58AB093
:1021800004AF0023BB6000237B603A46391D07F192
:1021900008031846FDF7DCFF39687B68BA680292CD
:1021A00001930023009300230A461F491F48FFF7AD
:1021B00017FE03461E4A13601D4B1B68002B02D0FE
:1021C00001237B6101E000237B617B69012B16D138
:1021D0004FF0500383F31188BFF36F8FBFF34F8F1E
:1021E0003B6100BF134B4FF0FF321A60124B0122CC
:1021F0001A60124B00221A6000F0EEFC0FE07B69BF
:10220000B3F1FF3F0BD14FF0500383F31188BFF3BD
:102210006F8FBFF34F8FFB6000BF00BFFDE700BFB4
:102220001837BD4680BD00BF0042000825280008C1
:1022300068040020640400205004002048040020AA
:1022400080B400AF044B1B680133034A136000BF26
:10225000BD4680BC704700BF6C04002080B584B0D0
:1022600000AF0023FB600023BB60424B1B68002BC8
:102270000BD14FF0500383F31188BFF36F8FBFF37F
:102280004F8F3B6000BF00BFFDE700F017FD394BEB
:102290001B68013B374A1360364B1B68002B61D12A
:1022A000354B1B68002B5DD02EE0344BDB68DB68C0
:1022B000FB60FB6818331846FFF776FBFB680433B6
:1022C0001846FFF771FBFB68DB6A01229A402C4B32
:1022D0001B6813432A4A1360FB68DA6A13469B00A3
:1022E00013449B00274A1A44FB68043319461046DE
:1022F000FFF7FFFAFB68DA6A234B1B68DB6A9A4236
:1023000002D3224B01221A601C4B1B68002BCCD13C
:10231000FB68002B01D000F03BFB1D4B1B687B6072
:102320007B68002B10D000F057F80346002B02D03A
:10233000164B01221A607B68013B7B607B68002B97
:10234000F1D1134B00221A60104B1B68002B09D0EF
:102350000123BB600F4B4FF080521A60BFF34F8FC9
:10236000BFF36F8F00F0DAFCBB6818461037BD462C
:1023700080BD00BF6C040020440400200404002041
:102380004C0400204803002044030020580400208F
:102390005404002004ED00E080B483B000AF044B8F
:1023A0001B687B607B6818460C37BD4680BC704755
:1023B0004804002080B582B000AF00F041FD00234A
:1023C0007B60044B1B683B603B6818460837BD4682
:1023D00080BD00BF4804002080B586B000AF002358
:1023E0007B614F4B1B68002B40F08F804D4B1B686F
:1023F00001333B614B4A3B6913603B69002B21D1A0
:10240000494B1B681B68002B0BD04FF0500383F324
:102410001188BFF36F8FBFF34F8F3B6000BF00BFCA
:10242000FDE7414B1B68FB60404B1B683E4A136055
:102430003E4AFB6813603E4B1B6801333C4A136005
:1024400000F0A6FA3B4B1B683A699A4248D3364BD8
:102450001B681B68002B04D1364B4FF0FF321A600B
:102460003EE0314B1B68DB68DB68BB60BB685B68C8
:102470007B603A697B689A4203D22E4A7B6813607C
:102480002EE0BB6804331846FFF78EFABB689B6AE0
:10249000002B04D0BB6818331846FFF785FABB68D9
:1024A000DB6A01229A40244B1B681343224A1360C3
:1024B000BB68DA6A13469B0013449B001F4A1A4408
:1024C000BB68043319461046FFF713FABB68DA6A93
:1024D0001B4B1B68DB6A9A42B9D301237B61B6E7C9
:1024E000174B1B68DA6A154913469B0013449B007F
:1024F0000B441B68012B01D901237B61114B1B6825
:10250000002B07D001237B6104E00F4B1B680133D4
:102510000D4A13607B6918461837BD4680BD00BF61
:102520006C04002048040020FC030020000400206C
:102530005C040020640400204C04002048030020B8
:1025400044030020580400205404002080B487B0C5
:1025500000AF274B1B68002B03D0264B01221A60CB
:1025600040E0244B00221A60234B1B68FB60FB6891
:10257000B3FA83F3FB72FB7AC3F11F037B611F493C
:102580007A6913469B0013449B000B441B68002B85
:102590000BD14FF0500383F31188BFF36F8FBFF35C
:1025A0004F8F7B6000BF00BFFDE77A6913469B0039
:1025B00013449B00114A13443B613B695B685A68B2
:1025C0003B695A603B695A683B6908339A4204D1B7
:1025D0003B695B685A683B695A603B695B68DB68CA
:1025E000074A136000BF1C37BD4680BC704700BF60
:1025F0006C040020580400204C04002048030020F4
:102600004403002080B584B000AF786039607B68F7
:10261000002B0BD14FF0500383F31188BFF36F8F62
:10262000BFF34F8FFB6000BF00BFFDE7074B1B6888
:10263000183319467868FFF77FF90121386800F0F0
:10264000E5F900BF1037BD4680BD00BF4403002040
:1026500080B586B000AF78607B68DB68DB683B6183
:102660003B69002B0BD14FF0500383F31188BFF36C
:102670006F8FBFF34F8FFB6000BF00BFFDE73B696B
:1026800018331846FFF790F91D4B1B68002B1CD11F
:102690003B6904331846FFF787F93B69DB6A01227F
:1026A0009A40184B1B681343164A13603B69DA6A59
:1026B00013469B0013449B00134A1A443B6904339E
:1026C00019461046FFF715F905E03B69183319461E
:1026D0000E48FFF70EF93B69DA6A0D4B1B68DB6A9F
:1026E0009A4205D901237B610A4B01221A6001E05D
:1026F00000237B617B6918461837BD4680BD00BF4B
:102700006C0400204C040020480300200404002036
:10271000440300205804002080B483B000AF7860E8
:10272000064B1A687B681A60054B1A687B685A600A
:1027300000BF0C37BD4680BC704700BF5C04002062
:102740004804002080B588B000AF786039607B68AD
:10275000002B0BD14FF0500383F31188BFF36F8F21
:10276000BFF34F8F3B6100BF00BFFDE73B68002B0D
:102770000BD14FF0500383F31188BFF36F8FBFF37A
:102780004F8FFB6000BF00BFFDE700F097FA1D4BC5
:102790001B68BB617B685B68BA69D31A7B613B6865
:1027A0001B68B3F1FF3F02D10023FB6123E07B688C
:1027B0001A68154B1B689A4207D07B685B68BA6938
:1027C0009A4202D30123FB6115E03B681B687A69DA
:1027D0009A420BD23B681A687B69D21A3B681A602E
:1027E0007868FFF799FF0023FB6104E03B68002253
:1027F0001A600123FB6100F091FAFB69184620374B
:10280000BD4680BD480400205C04002080B400AFB9
:10281000034B01221A6000BFBD4680BC704700BF59
:102820005804002080B582B000AF786000F052F804
:10283000064B1B68012BF9D9054B4FF080521A60EB
:10284000BFF34F8FBFF36F8FF0E700BF4803002047
:1028500004ED00E080B582B000AF00237B600CE0A7
:102860007A6813469B0013449B00124A134418468F
:10287000FFF714F87B6801337B607B68062BEFD988
:102880000D48FFF70BF80D48FFF708F80C48FFF765
:1028900005F80C48FFF702F80B48FEF7FFFF0B4B5B
:1028A000054A1A600A4B054A1A6000BF0837BD4640
:1028B00080BD00BF48030020D4030020E8030020AF
:1028C000040400201804002030040020FC03002031
:1028D0000004002080B582B000AF19E000F0EEF9EE
:1028E000104BDB68DB687B607B6804331846FFF7BE
:1028F0005BF80D4B1B68013B0B4A13600B4B1B68CD
:10290000013B0A4A136000F009FA786800F010F8F9
:10291000064B1B68002BE1D100BF00BF0837BD4646
:1029200080BD00BF18040020440400202C040020B7
:1029300080B584B000AF78607B6893F85130002B8D
:1029400008D17B681B6B184600F088FB786800F0A4
:1029500085FB19E07B6893F85130012B03D178682F
:1029600000F07CFB10E07B6893F85130022B0BD019
:102970004FF0500383F31188BFF36F8FBFF34F8F76
:10298000FB6000BF00BFFDE700BF1037BD4680BD44
:1029900080B483B000AF0C4B1B681B68002B04D1C4
:1029A0000A4B4FF0FF321A6008E0074B1B68DB68E8
:1029B000DB687B607B685B68044A136000BF0C3790
:1029C000BD4680BC704700BFFC03002064040020AB
:1029D00080B483B000AF0B4B1B68002B02D10123E6
:1029E0007B6008E0084B1B68002B02D102237B6050
:1029F00001E000237B607B6818460C37BD4680BC35
:102A0000704700BF500400206C04002080B584B0E3
:102A100000AF78603960294B1B68FB60284B1B684E
:102A200004331846FEF7C0FF0346002B0BD1244B9E
:102A30001B68DB6A012202FA03F3DA43214B1B68AD
:102A40001340204A13607B68B3F1FF3F0AD13B6813
:102A5000002B07D01A4B1B68043319461A48FEF79F
:102A600048FF26E0FA687B681344BB60144B1B6880
:102A7000BA685A60BA68FB689A4209D2134B1A685E
:102A80000F4B1B68043319461046FEF755FF10E044
:102A90000F4B1A680A4B1B68043319461046FEF7A1
:102AA0004BFF0C4B1B68BA689A4202D2094ABB68BA
:102AB000136000BF1037BD4680BD00BF4804002032
:102AC000440300204C0400203004002000040020B7
:102AD000FC0300206404002080B485B000AFF860DF
:102AE000B9607A60FB68043BFB60FB684FF0807262
:102AF0001A60FB68043BFB60BB6823F00102FB68C3
:102B00001A60FB68043BFB60084AFB681A60FB68BC
:102B1000143BFB607A68FB681A60FB68203BFB6033
:102B2000FB6818461437BD4680BC7047312B00083F
:102B300080B485B000AF00237B60124B1B68B3F1FB
:102B4000FF3F0BD04FF0500383F31188BFF36F8F1B
:102B5000BFF34F8FFB6000BF00BFFDE74FF0500396
:102B600083F31188BFF36F8FBFF34F8FBB6000BF3C
:102B700000BF7B68002BFCD000BF00BF1437BD46F0
:102B800080BC70470C000020000000000000000026
:102B9000074B19680868B0E8F00F80F30988BFF3A5
:102BA0006F8F4FF0000080F311884EF00D0E7047CC
:102BB0004403002000BF00BF06480068006880F39F
:102BC000088862B661B6BFF34F8FBFF36F8F00DF27
:102BD00000BF00BF08ED00E080B584B000AF324B0D
:102BE000FB60FB681B78DBB27B60FB68FF221A701E
:102BF000FB681B78DBB2FB70FB78DBB203F05003A1
:102C0000DAB22A4B1A702A4B07221A6009E0284BC5
:102C10001B68013B264A1360FB78DBB25B00DBB22A
:102C2000FB70FB78DBB203F08003802BEFD0204BEE
:102C30001B68C3F10703042B0BD04FF0500383F341
:102C40001188BFF36F8FBFF34F8FBB6000BF00BF12
:102C5000FDE7174B1B681B02154A1360144B1B68DA
:102C600003F4E063124A13607B68DAB2FB681A70FF
:102C7000104B1B680F4A43F4700313600D4B1B6825
:102C80000C4A43F07043136000F0B8F80A4B00227E
:102C90001A60FFF791FFFFF759FCFFF749FF002388
:102CA00018461037BD4680BD00E400E070040020E7
:102CB0007404002020ED00E00C00002080B483B0FC
:102CC00000AF4FF0500383F31188BFF36F8FBFF352
:102CD0004F8F7B6000BF0F4B1B6801330D4A1360A1
:102CE0000C4B1B68012B10D10B4B1B68DBB2002B6C
:102CF0000BD04FF0500383F31188BFF36F8FBFF3F6
:102D00004F8F3B6000BF00BFFDE700BF0C37BD46E3
:102D100080BC70470C00002004ED00E080B483B05C
:102D200000AF124B1B68002B0BD14FF0500383F305
:102D30001188BFF36F8FBFF34F8F7B6000BF00BF61
:102D4000FDE70A4B1B68013B084A1360074B1B68F1
:102D5000002B05D100233B603B6883F3118800BF43
:102D600000BF0C37BD4680BC704700BF0C00002080
:102D7000EFF30980BFF36F8F0D4B1A6820E9F00F56
:102D800010602DE908404FF0500080F31188FFF7E4
:102D9000DDFB4FF0000080F31188BDE808401968A2
:102DA0000868B0E8F00F80F30988BFF36F8F7047B1
:102DB0004403002000BF00BF80B582B000AF4FF0D9
:102DC000500383F31188BFF36F8FBFF34F8F7B6086
:102DD00000BFFFF701FB0346002B03D0064B4FF06B
:102DE00080521A6000233B603B6883F3118800BF68
:102DF00000BF0837BD4680BD04ED00E080B400AFE1
:102E00000A4B00221A600A4B00221A60094B1B6809
:102E1000094AA2FB03239B09084A013B1360034BA9
:102E200007221A6000BFBD4680BC704710E000E07A
:102E300018E000E000000020D34D621014E000E034
:102E400080B485B000AFEFF30583FB60FB680F2B08
:102E500015D9174AFB6813441B78FB72154B1B7876
:102E6000FA7A9A420BD24FF0500383F31188BFF3E2
:102E70006F8FBFF34F8F7B6000BF00BFFDE70E4B2E
:102E80001B6803F4E0620D4B1B689A420BD94FF0AC
:102E9000500383F31188BFF36F8FBFF34F8F3B60F5
:102EA00000BF00BFFDE700BF1437BD4680BC7047C0
:102EB000F0E300E0700400200CED00E0740400205A
:102EC00080B58AB000AF78600023FB61FFF7B8F9E6
:102ED0005C4B1B68002B01D100F024F95A4B1A6897
:102EE0007B681340002B40F095807B68002B1ED040
:102EF00008227B6813447B607B6803F00703002B88
:102F000015D07B6823F0070308337B607B6803F0F0
:102F10000703002B0BD04FF0500383F31188BFF34E
:102F20006F8FBFF34F8F7B6100BF00BFFDE77B68F2
:102F3000002B6FD0454B1B687A689A426AD8444B85
:102F40003B62434B1B687B6204E07B6A3B627B6AAB
:102F50001B687B627B6A5B687A689A4203D97B6AEA
:102F60001B68002BF1D1374B1B687A6A9A4251D00B
:102F70003B6A1B6808221344FB617B6A1A683B6A40
:102F80001A607B6A5A687B68D21A08235B009A42EF
:102F900020D97A6A7B681344BB61BB6903F00703DD
:102FA000002B0BD04FF0500383F31188BFF36F8FCA
:102FB000BFF34F8F3B6100BF00BFFDE77B6A5A68DC
:102FC0007B68D21ABB695A607B6A7A685A60B869B2
:102FD00000F00AF91D4B1A687B6A5B68D31A1B4A1A
:102FE00013601A4B1A681B4B1B689A4203D2174B8B
:102FF0001B68184A13607B6A5A68134B1B681A4394
:103000007B6A5A607B6A00221A60134B1B6801338B
:10301000114A1360FFF722F9FB6903F00703002B45
:103020000BD04FF0500383F31188BFF36F8FBFF3C2
:103030004F8FFB6000BF00BFFDE7FB6918462837D4
:10304000BD4680BD80100020941000208410002018
:1030500078100020881000208C10002080B586B0E9
:1030600000AF78607B687B617B68002B4FD00823C2
:103070005B427A6913447B617B693B613B695A68B7
:10308000254B1B681340002B0BD14FF0500383F3EB
:103090001188BFF36F8FBFF34F8FFB6000BF00BF7E
:1030A000FDE73B691B68002B0BD04FF0500383F307
:1030B0001188BFF36F8FBFF34F8FBB6000BF00BF9E
:1030C000FDE73B695A68144B1B681340002B1ED068
:1030D0003B691B68002B1AD13B695A680E4B1B6871
:1030E000DB431A403B695A60FFF7AAF83B695A680C
:1030F0000A4B1B681344094A1360386900F074F8DE
:10310000074B1B680133064A1360FFF7A7F800BF9F
:103110001837BD4680BD00BF9410002084100020E9
:103120009010002080B485B000AF4FF44063BB60C6
:10313000274BFB60FB6803F00703002B0CD0FB68F8
:103140000733FB60FB6823F00703FB60BA68FB688A
:10315000D31A1F4A1344BB60FB687B601D4A7B681F
:1031600013601C4B00225A607B68BA681344FB60F2
:103170000822FB689B1AFB60FB6823F00703FB60D7
:10318000FB68154A1360144B1B6800225A60124BEF
:103190001B6800221A607B683B603B68FA68D21AA1
:1031A0003B685A600C4B1A683B681A603B685B6866
:1031B0000A4A13603B685B68094A1360094B4FF089
:1031C00000421A6000BF1437BD4680BC704700BF84
:1031D0007804002078100020801000208810002043
:1031E000841000209410002080B485B000AF786077
:1031F000274BFB6002E0FB681B68FB60FB681B68F9
:103200007A689A42F7D8FB68BB60FB685B68BA686B
:1032100013447A689A4208D1FB685A687B685B68F5
:103220001A44FB685A60FB687B607B68BB607B6804
:103230005B68BA681A44FB681B689A4218D1FB683D
:103240001A68144B1B689A420DD07B685A68FB6859
:103250001B685B681A447B685A60FB681B681A68C5
:103260007B681A6008E00B4B1A687B681A6003E001
:10327000FB681A687B681A60FA687B689A4202D019
:10328000FB687A681A6000BF1437BD4680BC70477F
:103290007810002080100020002310B50446C0E9FB
:1032A0000033C0E90433836081814366C281836156
:1032B000194608225C3000F006F90D4B2462636267
:1032C0000C4BA3620C4BE3620C4B23630C4B9C42F4
:1032D00006D003F16802944202D0D0339C4205D15B
:1032E00004F15800BDE8104000F066B910BD00BF01
:1032F00041340008633400089B340008BF340008E0
:1033000098100020024A0349034800F069B800BF42
:1033100010000020693E00082000002041680C4B8E
:1033200010B59942044601D000F09EFDA168094BFA
:10333000994202D0204600F097FDE168064B994281
:1033400004D02046BDE8104000F08EBD10BD00BF87
:1033500098100020001100206811002010B50B4BC0
:103360000B4C0C4A20461A6004210022FFF794FF00
:1033700004F1680001220921FFF78EFF04F1D0005B
:103380000222BDE810401221FFF786BFD0110020B5
:103390009810002005330008014800F00EB900BF66
:1033A000D9110020014800F009B900BFD91100204F
:1033B00010B50446FFF7F0FF236A1BB1BDE81040CB
:1033C000FFF7F0BF044B2362044B1B68002BF5D1C1
:1033D000FFF7C4FFF2E700BF1D330008D011002043
:1033E0002DE9F8430746884614460026D4E901959E
:1033F000B9F1010905D52468002CF7D13046BDE8A4
:10340000F883AB89012B07D9B5F90E30013303D00E
:1034100029463846C04706436835E9E70FB407B583
:10342000064904AB086853F8042B8168019300F047
:10343000F3F903B05DF804EB04B070471C00002002
:1034400010B50C46B1F90E1000F068F80028ABBFBB
:10345000636DA3891B1823F48053ACBF6365A381FC
:1034600010BD2DE9F0411F468B890546DB050C4652
:10347000164605D502230022B1F90E1000F03CF8E3
:10348000A389324623F48053A38128463B46B4F9EE
:103490000E10BDE8F04100F053B810B50C46B1F97C
:1034A0000E1000F029F8431CA38915BF606523F4B2
:1034B000805343F48053A38118BFA38110BDB1F999
:1034C0000E1000F009B803460244934200D1704741
:1034D00003F8011BF9E7000038B50023054D044649
:1034E00008462B60FDF77CF8431C02D12B6803B122
:1034F000236038BDD411002038B504460846114673
:103500000022054D2A601A46FDF78EF8431C02D1B1
:103510002B6803B1236038BDD411002038B50446B0
:10352000084611460022054D2A601A46FDF71FF88D
:10353000431C02D12B6803B1236038BDD411002095
:1035400038B50446084611460022054D2A601A4641
:10355000FDF72AF8431C02D12B6803B1236038BD64
:10356000D4110020014B1868704700BF1C000020D8
:1035700070B500260C4D0D4C641BA410A64209D159
:1035800000F0D0FD00260A4D0A4C641BA410A64290
:1035900005D170BD55F8043B98470136EEE755F864
:1035A000043B98470136F2E7684200086842000889
:1035B000684200086C4200087047704770470A4430
:1035C000914200F1FF3300D1704710B511F8014B63
:1035D000914203F8014FF9D110BD000038B50546FE
:1035E000002940D051F8043C0C1F002BB8BFE41850
:1035F00000F0DEF81C4A136833B963601460284693
:10360000BDE8384000F0DAB8A34208D92068211894
:103610008B4201BF19685B6809182160EDE71A4603
:103620005B680BB1A342FAD911685018A0420BD1C4
:1036300020680144501883421160E0D118685B682B
:10364000084410605360DAE702D90C232B60D6E7F8
:10365000206821188B4201BF19685B680918216036
:1036600063605460CBE738BDE011002070B50F4EA9
:103670000C463168054611B900F0B2FC30602146B5
:10368000284600F0ADFC431C03D14FF0FF34204628
:1036900070BDC41C24F00304A042F8D0211A2846AF
:1036A00000F09EFC0130F2D1EFE700BFDC110020FA
:1036B0002DE9F843CD1C25F0030508350C2D38BF46
:1036C0000C25002D064601DBA94204D90C233360EA
:1036D0000020BDE8F883DFF8D48000F069F8D8F85E
:1036E00000301C4644BB29463046FFF7BFFF431C51
:1036F000044658D1D8F800402746002F43D1002C6B
:103700004BD023683946304604EB030900F068FCCF
:10371000814542D1216830466D1A2946FFF7A6FF40
:1037200001303AD023682B442360D8F800305A681F
:1037300062BBC8F800700FE02268521B20D40B2A2D
:1037400017D96119A342256018BF5960636808BF83
:10375000C8F8001062514B60304600F02FF804F1B9
:103760000B00231D20F00700C21A1CBF1B1AA35018
:10377000AFE76268A3420CBFC8F800205A60EBE7CD
:1037800023466468AEE73C467F68B6E71A465B6846
:10379000A342FBD100235360DEE70C2330463360A5
:1037A00000F00CF894E70560D6E700BFE0110020B8
:1037B0000148FFF702BF00BFD81100200148FFF702
:1037C000FDBE00BFD8110020936810B4013B002B50
:1037D000936007DA9469A34201DB0A2902D110BC85
:1037E00000F06ABB1368581C10601970084610BCC2
:1037F0007047F8B506460F461446D518AC4201D1BD
:10380000002007E03A46304614F8011BFFF7DCFFC2
:10381000431CF3D1F8BD00002DE9F04F0D461446CE
:10382000984606469DB018B1036A0BB9FFF7C0FD74
:103830006B6ED90705D4AB899A0502D4A86DFFF742
:10384000BCFEAB891B0701D52B699BB929463046C5
:1038500000F070FB70B16B6EDC0704D54FF0FF30E9
:103860001DB0BDE8F08FAB899805F7D4A86DFFF7C0
:10387000A5FEF3E70023099320238DF82930302398
:103880004FF00109CDF80C80DFF8A8818DF82A30BF
:1038900023469A4613F8012B0AB1252AF9D1BAEB2F
:1038A000040B0BD05B46224629463046FFF7A1FFAA
:1038B000013000F0A780099A5A4409929AF8003022
:1038C000002B00F09F8000234FF0FF32CDE905234D
:1038D0000AF1010A049307938DF853301A93544662
:1038E000052214F8011B534800F08AFB049AD8B94A
:1038F000D10644BF20238DF85330130744BF2B2338
:103900008DF853309AF800302A2B15D054460020F9
:103910004FF00A0C079A214611F8013B303B092B66
:103920004BD9B0B1079214E0A0EB080309FA03F3F6
:103930001343A2460493D2E7039B191D1B6803910E
:10394000002BBBBF5B4242F0020207930793B8BF54
:10395000049223782E2B0AD163782A2B32D1039B31
:1039600002341A1D1B68039243EAE3730593DFF8E0
:10397000C8A003225046217800F042FB38B1402213
:10398000049BA0EB0A00824013430134049314F813
:10399000011B062229488DF8281000F031FB002871
:1039A0003FD0274B1BBB039B073323F00703083390
:1039B0000393099B3B4409936AE70C4601200CFBE7
:1039C0000232A8E700234FF00A0C19460134059390
:1039D000204610F8012B303A092A03D9002BC6D013
:1039E0000591C4E7044601230CFB0121F0E703AB7A
:1039F00000932A463046134B04A9AFF300800746D4
:103A0000781CD6D16B6ED90705D4AB899A0502D440
:103A1000A86DFFF7D3FDAB895B063FF51FAF099893
:103A20001EE703AB00932A463046064B04A900F07C
:103A30007DF8E4E732420008384200083C420008C2
:103A400000000000F33700082DE9F04716469846BD
:103A50008A680B6907469342B8BF1346336091F8F2
:103A600043200C46DDF820900AB10133336023680F
:103A7000990642BF336802333360256815F00605A6
:103A800006D104F1190AE36832689B1AAB422BDCB9
:103A900094F843302268003B18BF0123920630D4CB
:103AA0004146384604F14302C847013023D0236819
:103AB000226903F00603042B14BF002533684FF07E
:103AC000000608BFE56804F11A0408BFED1A54F8AF
:103AD000123C08BF25EAE5759342C4BF9B1AED1856
:103AE000B5421AD1002008E001235246414638462B
:103AF000C847013003D14FF0FF30BDE8F0870135F2
:103B0000C1E73020E11881F843005A1C94F84510B1
:103B10002244023382F84310C2E701232246414681
:103B20003846C8470130E6D00136D9E72DE9FF47CE
:103B30000F7E9146782F80460C469A460C9E01F1E6
:103B4000430207D8622F0AD8002F00F0D180582FE7
:103B500000F0B88004F1420684F842703AE0A7F120
:103B60006303152BF6D801A151F823F0C53B0008DB
:103B7000D93B0008553B0008553B0008553B000861
:103B8000553B0008D93B0008553B0008553B000851
:103B9000553B0008553B0008D73C0008033C000893
:103BA000913C0008553B0008553B0008F93C0008D3
:103BB000553B0008033C0008553B0008553B0008F6
:103BC000993C000833681A1D1B68326004F14206F4
:103BD00084F8423001239CE033682068191D31606D
:103BE000060601D51D6803E04506FBD5B3F9005074
:103BF000002D03DA2D236D4284F843300A23584800
:103C000011E021683368080653F8045B02D44906C2
:103C100048BFADB26F2F336014BF0A23082350484A
:103C2000002184F843106668002EA66005DB216839
:103C30002E4321F0040121604BD01646B5FBF3F171
:103C400003FB1157C75D06F8017D2F46BB420D46A9
:103C5000F4D9082B0BD12368DF0708D523696168E5
:103C60009942DEBF302306F8013C06F1FF36921B75
:103C700022614B4621464046CDF800A003AAFFF73B
:103C8000E3FE01304AD14FF0FF3004B0BDE8F087C9
:103C9000236843F0200323607827324884F8457076
:103CA000236831681F0651F8045B02D45F0648BFE1
:103CB000ADB23160D90744BF43F0200323601DB18A
:103CC0001023ADE72648E9E7236823F020032360AB
:103CD000F6E71646BDE733682568181D6169306050
:103CE0002E061B6801D5196002E06806FBD5198015
:103CF000002316462361BCE7336800211A1D326099
:103D00001E686268304600F07BF908B1801B606075
:103D100063682361002384F84330AAE732464946AA
:103D200040462369D0470130ADD023689B0713D4A8
:103D3000E068039B9842B8BF1846A6E701233246C5
:103D400049464046D04701309DD00135E36803998C
:103D50005B1AAB42F2DCEBE7002504F11906F5E74C
:103D60004342000854420008B1F90C20F8B5160788
:103D700005460C4654D44B68002B02DC0B6C002B20
:103D800048DDE66A002E45D0002312F480522F68E9
:103D9000216A2B6030D0626DA389590705D563680D
:103DA000D21A636B0BB1236CD21A00232846E66A41
:103DB000216AB047431CA38906D129681D292BD845
:103DC000284ACA40D60727D5002262602269D90452
:103DD000226004D5421C01D12B6803B96065616B78
:103DE0002F60B9B104F14403994202D02846FFF78D
:103DF000F5FB002363630DE001232846B04702462C
:103E0000501CC9D12B68002BC6D01D2B01D0162BFE
:103E10001DD12F60002021E043F040031BB21AE0C7
:103E20000F69002FF6D0930718BF00230E6808BF54
:103E30004B69F61B0F608B60002EEBDD33463A4674
:103E40002846216AD4F828C0E047002807DCB4F9E6
:103E50000C3043F040034FF0FF30A381F8BD07441E
:103E6000361AE9E70100402038B50B6905460C46D3
:103E700013B90025284638BD18B1036A0BB9FFF7FE
:103E800097FAB4F90C30002BF3D0626ED00704D44B
:103E9000990502D4A06DFFF790FB28462146FFF755
:103EA00063FF636E0546DA07E4D4A3899B05E1D47A
:103EB000A06DFFF783FBDDE7F8B50E461446054617
:103EC00018B1036A0BB9FFF773FAA369A360A3895A
:103ED0001A0701D5236943B92146284600F02AF87C
:103EE00018B14FF0FF373846F8BD23682269F6B2A3
:103EF000981A63693746834205DC21462846FFF756
:103F0000B3FF0028EDD1A368013BA36023685A1CCE
:103F100022601E706269431C9A4204D0A389DB07A9
:103F2000E1D50A2EDFD121462846FFF79DFF002864
:103F3000D9D0D6E738B5294B054618680C4618B1D4
:103F4000036A0BB9FFF734FAB4F90C30190722D41D
:103F5000DA0607D409222A6043F040034FF0FF300D
:103F6000A38133E0580712D5616B41B104F14403DA
:103F7000994202D02846FFF731FB00236363A389EF
:103F800023F02403A3810023636023692360A389B2
:103F900043F00803A38123694BB9A38903F4207379
:103FA000B3F5007F03D02146284600F05CF8B4F951
:103FB0000C3013F001020AD00022A2606269524262
:103FC000A261226942B913F08000C5D138BD9907BA
:103FD00058BF6269A260F4E70020F7E71C000020E8
:103FE00038B50023054D044608462B60FCF728FB36
:103FF000431C02D12B6803B1236038BDD4110020CB
:10400000034610B5C9B202449342184601D10020BC
:1040100003E0047801338C42F6D110BD70B50C4634
:10402000B1F90E10154600291E4696B00CDAA38988
:10403000002113F0800F14BF40234FF48063002051
:1040400031602B6016B070BD6A4600F049F8002858
:10405000EDDB019901F47041A1F50053594259413A
:104060004FF48063EBE78B89F7B59D0706460C4656
:1040700007D504F14703236023610123636103B083
:10408000F0BD6A4601ABFFF7C9FF009F0546394600
:104090003046FFF70DFB48B9B4F90C309A05EED461
:1040A00023F0030343F00203A381E2E7A389C4E9F9
:1040B000040743F08003A381019B20605BB130467D
:1040C000B4F90E1000F01EF828B1A38923F0030301
:1040D00043F00103A381A3891D43A581CFE700001D
:1040E00038B50023064D0446084611462B60FCF700
:1040F00082FA431C02D12B6803B1236038BD00BF94
:10410000D411002038B50023054D044608462B6025
:10411000FCF780FA431C02D12B6803B1236038BD41
:10412000D4110020F8B500BFF8BC08BC9E4670470B
:0C413000F8B500BFF8BC08BC9E46704704
:10413C005461736B4C6F77003C41000849030008D5
:10414C00FEFF0000000000008000000000000000E6
:10415C00000000005461736B4E6F726D616C000057
:10416C00604100088503000800000000000000000A
:10417C008000000000000000000000005461736B20
:10418C00486967680000000088410008BD0300080A
:10419C000200000000000000800000000000000091
:1041AC00000000004C4F572020207C205469636B8A
:1041BC003A20256C75207C2044656C74613A20256E
:1041CC006C75206D730D0A004E4F524D414C207290
:1041DC00656365697665643A20256C750D0A000087
:1041EC00484947482052554E4E494E473A20256C77
:1041FC00750D0A0049444C45000000000000000009
:10420C00000000000102030406070809000000007A
:10421C000102030402030405060708090A0B0C0D2E
:10422C000E0F10100102232D302B2000686C4C0057
:10423C00656667454647003031323334353637389A
:10424C0039414243444546003031323334353637F8
:0C425C0038396162636465660000000090
:044268003501000814
:04426C001101000834
:1042700000127A001000000001000000AAAAAAAAF9
:104280000000000003000000981000202000002023
:10429000000000009810002000110020681100208C
:1042A000000000000000000000000000000000000E
:1042B00000000000000000000000000000000000FE
:1042C00000000000000000000000000000000000EE
:0C42D000000000000000000000000000E2
:04000005080006B930
:00000001FF
