:020000040800F2
:10000000005000206D0400081104000819040008C5
:100010002104000829040008310400080000000041
:10002000000000000000000000000000D1210008D6
:100030003904000800000000B1230008450400084E
:10004000B5040008B5040008B5040008B5040008AC
:10005000B5040008B5040008B5040008B50400089C
:10006000B5040008B5040008B5040008B50400088C
:10007000B5040008B5040008B5040008B50400087C
:10008000B5040008B5040008B5040008B50400086C
:10009000B5040008B5040008B5040008B50400085C
:1000A000B5040008B5040008B5040008B50400084C
:1000B000B5040008B5040008B5040008B50400083C
:1000C000B5040008B5040008B5040008B50400082C
:1000D000B5040008B5040008B5040008B50400081C
:1000E000B5040008B5040008B504000800000000CD
:1000F0000000000000000000000000000000000000
:0C01000000000000000000005FF808F1A3
:1001100010B5054C237833B9044B13B10448AFF341
:1001200000800123237010BD10000020000000009B
:10013000B028000808B5034B1BB103490348AFF3CF
:10014000008008BD0000000014000020B028000856
:1001500080B485B000AFF860B9607A60FB68064A89
:100160001A60BB68054A1A607B6880221A6000BF6B
:100170001437BD4680BC70472C0000208000002052
:10018000B0B588B000AF00F097F900F01DF800F0AE
:100190008BF800F05FF80A4B3C1D1D460FCD0FC4D5
:1001A00095E8070084E807003B1D0021184601F090
:1001B00059F90346034A136001F04DF900BFFDE70A
:1001C000D4280008C802002080B590B000AF07F125
:1001D000180328220021184602F03EFB3B1D002296
:1001E0001A605A609A60DA601A610123BB614FF4A9
:1001F0008033FB6100233B620123BB6202237B63EC
:100200004FF48033BB634FF4E013FB6307F1180333
:10021000184600F01BFC0346002B01D000F06EF8DE
:100220000F237B600223BB600023FB604FF48063DD
:100230003B6100237B613B1D0221184600F088FED4
:100240000346002B01D000F059F800BF4037BD46EF
:1002500080BD000080B500AF114B124A1A60104BF0
:100260004FF4E1325A600E4B00229A600C4B002290
:10027000DA600B4B00221A61094B0C225A61084BC1
:100280004FF440729A61064B0022DA61044800F094
:10029000EDFF0346002B01D000F030F800BF80BD19
:1002A000800200200038014080B483B000AF0E4BC4
:1002B0009B690D4A43F0200393610B4B9B6903F04C
:1002C00020037B607B68084B9B69074A43F004036B
:1002D0009361054B9B6903F004033B603B6800BFDF
:1002E0000C37BD4680BC70470010024080B582B01C
:1002F00000AF7860012001F001F9FBE780B400AFA6
:1003000072B600BF00BFFDE780B584B000AF184BE8
:100310009B69174A43F001039361154B9B6903F0F6
:100320000103BB60BB68124BDB69114A43F0805389
:10033000D3610F4BDB6903F080537B607B68002245
:100340000F216FF0010000F0D4F90A4B5B68FB60ED
:10035000FB6823F0E063FB60FB6843F08063FB60B5
:10036000044AFB68536000BF1037BD4680BD00BF24
:10037000001002400000014080B588B000AF7860F6
:1003800007F1100300221A605A609A60DA607B68F5
:100390001B681C4A934231D11B4B9B691A4A43F498
:1003A00080439361184B9B6903F48043FB60FB68B7
:1003B000154B9B69144A43F004039361124B9B69EC
:1003C00003F00403BB60BB684FF490533B6102230E
:1003D0007B610323FB6107F1100319460B4800F012
:1003E000B1F94FF440633B6100237B610023BB61A3
:1003F00007F110031946054800F0A4F900BF2037A3
:10040000BD4680BD00380140001002400008014098
:1004100080B400AF00BFFDE780B400AF00BFFDE7D0
:1004200080B400AF00BFFDE780B400AF00BFFDE7C0
:1004300080B400AF00BFFDE780B400AF00BFBD4691
:1004400080BC704780B500AF00F07CF801F0E0FDA3
:100450000346012B01D001F0CFFF00BF80BD80B467
:1004600000AF00BFBD4680BC70470000FFF7F7FF3C
:100470000B480C490C4A002302E0D458C450043302
:10048000C4188C42F9D3094A094C002301E01360D7
:100490000432A242FBD302F0E7F9FFF771FE704786
:1004A00000000020100000202C290008100000206F
:1004B00024100020FEE7000080B500AF084B1B6849
:1004C000074A43F010031360032000F007F90F20E0
:1004D00000F008F8FFF718FF0023184680BD00BFA2
:1004E0000020024080B582B000AF7860124B1A68DD
:1004F000124B1B7819464FF47A73B3FBF1F3B2FB3E
:10050000F3F3184600F011F90346002B01D0012344
:100510000EE07B680F2B0AD8002279684FF0FF307D
:1005200000F0E7F8064A7B681360002300E001232F
:1005300018460837BD4680BD000000200800002096
:100540000400002080B400AF054B1B781A46054B11
:100550001B681344034A136000BFBD4680BC70474C
:1005600008000020CC02002080B400AF024B1B68C2
:100570001846BD4680BC7047CC02002080B485B0D0
:1005800000AF78607B6803F00703FB600C4BDB680F
:10059000BB60BA684FF6FF031340BB60FB681A02EA
:1005A000BB68134343F0BF6343F40033BB60044AAA
:1005B000BB68D36000BF1437BD4680BC704700BF26
:1005C00000ED00E080B400AF044BDB681B0A03F0D1
:1005D00007031846BD4680BC704700BF00ED00E031
:1005E00080B483B000AF03463960FB7197F90730E0
:1005F000002B0ADB3B68DAB20C4997F9073012018D
:10060000D2B20B4483F800230AE03B68DAB208490F
:10061000FB7903F00F03043B1201D2B20B441A76AC
:1006200000BF0C37BD4680BC704700BF00E100E052
:1006300000ED00E080B489B000AFF860B9607A6086
:10064000FB6803F00703FB61FB69C3F10703042B9D
:1006500028BF0423BB61FB690433062B02D9FB6965
:10066000033B00E000237B614FF0FF32BB6902FADD
:1006700003F3DA43BB681A407B699A404FF0FF31BD
:100680007B6901FA03F3D9437B680B401343184697
:100690002437BD4680BC704780B582B000AF78601B
:1006A0007B68013BB3F1807F01D301230FE00A4A4D
:1006B0007B68013B53600F214FF0FF30FFF790FF45
:1006C000054B00229A60044B07221A60002318464B
:1006D0000837BD4680BD00BF10E000E080B582B0A5
:1006E00000AF78607868FFF749FF00BF0837BD4664
:1006F00080BD80B586B000AF0346B9607A60FB73F9
:1007000000237B61FFF75EFF78617A68B9687869DA
:10071000FFF790FF024697F90F3011461846FFF792
:100720005FFF00BF1837BD4680BD80B582B000AF07
:1007300078607868FFF7B0FF034618460837BD4673
:1007400080BD000080B48BB000AF786039600023BA
:100750007B6200233B6269E101227B6A02FA03F3B8
:10076000FB613B681B68FA691340BB61BA69FB69AE
:100770009A4240F058813B685B689A4A93425ED047
:10078000984A934275D8984A934258D0964A9342D1
:100790006FD8964A934252D0944A934269D8944A69
:1007A00093424CD0924A934263D8924A934246D0A5
:1007B000904A93425DD8122B2AD8122B59D801A205
:1007C00052F823F03F080008190800082B08000819
:1007D0006D08000873080008730800087308000813
:1007E00073080008730800087308000873080008FD
:1007F00073080008730800087308000873080008ED
:10080000730800087308000821080008350800086C
:10081000794A934213D02CE03B68DB683B6229E0C5
:100820003B68DB6804333B6224E03B68DB680833E9
:100830003B621FE03B68DB680C333B621AE03B68BD
:100840009B68002B02D104233B6213E03B689B684A
:10085000012B05D108233B627B68FA691A6109E024
:1008600008233B627B68FA695A6103E000233B621C
:1008700000E000BFBB69FF2B01D87B6801E07B680B
:1008800004337B61BB69FF2B02D87B6A9B0002E0CB
:100890007B6A083B9B003B617B691A680F213B69BF
:1008A00001FA03F3DB431A40396A3B6901FA03F3A7
:1008B0001A437B691A603B685B6803F08053002B26
:1008C00000F0B1804D4B9B694C4A43F001039361AA
:1008D0004A4B9B6903F00103BB60BB68484A7B6AD3
:1008E0009B08023352F82330FB607B6A03F003035A
:1008F0009B000F2202FA03F3DB43FA681340FB600C
:100900007B68404A934213D07B683F4A93420DD0A4
:100910007B683E4A934207D07B683D4A934201D1AF
:10092000032306E0042304E0022302E0012300E0A5
:1009300000237A6A02F0030292009340FA6813439C
:10094000FB602F497B6A9B080233FA6841F8232039
:100950003B685B6803F48013002B06D02D4B9A682C
:100960002C49BB6913438B6006E02A4B9A68BB692C
:10097000DB43284913408B603B685B6803F400133A
:10098000002B06D0234BDA682249BB691343CB60A6
:1009900006E0204BDA68BB69DB431E491340CB609D
:1009A0003B685B6803F40033002B06D0194B5A6890
:1009B0001849BB6913434B6006E0164B5A68BB6984
:1009C000DB43144913404B603B685B6803F480339E
:1009D000002B21D00F4B1A680E49BB6913430B60E3
:1009E00021E000BF00003210000031100000221092
:1009F0000000211000001210000011100010024031
:100A00000000014000080140000C014000100140BE
:100A100000140140000401400B4B1A68BB69DB4322
:100A2000094913400B607B6A01337B623B681A689B
:100A30007B6A22FA03F3002B7FF48EAE00BF00BF67
:100A40002C37BD4680BC70470004014080B586B09D
:100A500000AF78607B68002B01D1012372E27B68D4
:100A60001B6803F00103002B00F08780924B5B684A
:100A700003F00C03042B0CD08F4B5B6803F00C03CA
:100A8000082B12D18C4B5B6803F48033B3F5803FA5
:100A90000BD1894B1B6803F40033002B6CD07B68AF
:100AA0005B68002B68D101234CE27B685B68B3F57F
:100AB000803F06D1804B1B687F4A43F4803313602C
:100AC0002EE07B685B68002B0CD17B4B1B687A4A5D
:100AD00023F480331360784B1B68774A23F4802318
:100AE00013601DE07B685B68B3F5A02F0CD1724BDF
:100AF0001B68714A43F4802313606F4B1B686E4A76
:100B000043F4803313600BE06B4B1B686A4A23F499
:100B100080331360684B1B68674A23F4802313609B
:100B20007B685B68002B13D0FFF71EFD386108E07F
:100B3000FFF71AFD02463B69D31A642B01D9032340
:100B400000E25D4B1B6803F40033002BF0D014E08F
:100B5000FFF70AFD386108E0FFF706FD02463B6932
:100B6000D31A642B01D90323ECE1534B1B6803F424
:100B70000033002BF0D100E000BF7B681B6803F05E
:100B80000203002B63D04C4B5B6803F00C03002B7B
:100B90000BD0494B5B6803F00C03082B1CD1464B70
:100BA0005B6803F48033002B16D1434B1B6803F0C2
:100BB0000203002B05D07B681B69012B01D00123A8
:100BC000C0E13D4B1B6823F0F8027B685B69DB00EA
:100BD000394913430B603AE07B681B69002B20D036
:100BE000364B01221A60FFF7BFFC386108E0FFF7BF
:100BF000BBFC02463B69D31A022B01D90323A1E1B6
:100C00002D4B1B6803F00203002BF0D02A4B1B680E
:100C100023F0F8027B685B69DB00274913430B6014
:100C200015E0264B00221A60FFF79EFC386108E0B1
:100C3000FFF79AFC02463B69D31A022B01D9032322
:100C400080E11D4B1B6803F00203002BF0D17B6891
:100C50001B6803F00803002B3AD07B689B69002BCC
:100C600019D0174B01221A60FFF77EFC386108E0AB
:100C7000FFF77AFC02463B69D31A022B01D9032302
:100C800060E10D4B5B6A03F00203002BF0D0012002
:100C900000F0CEFA1CE00A4B00221A60FFF764FC59
:100CA00038610FE0FFF760FC02463B69D31A022B64
:100CB00008D9032346E100BF001002400000424271
:100CC00080044242924B5B6A03F00203002BE9D19D
:100CD0007B681B6803F00403002B00F0A680002350
:100CE000FB758B4BDB6903F08053002B0DD1884BD8
:100CF000DB69874A43F08053D361854BDB6903F09E
:100D00008053BB60BB680123FB75824B1B6803F4F7
:100D10008073002B18D17F4B1B687E4A43F480738D
:100D20001360FFF721FC386108E0FFF71DFC024665
:100D30003B69D31A642B01D9032303E1754B1B686C
:100D400003F48073002BF0D07B68DB68012B06D1A5
:100D50006F4B1B6A6E4A43F0010313622DE07B6800
:100D6000DB68002B0CD16A4B1B6A694A23F0010334
:100D70001362674B1B6A664A23F0040313621CE08C
:100D80007B68DB68052B0CD1614B1B6A604A43F022
:100D9000040313625E4B1B6A5D4A43F00103136256
:100DA0000BE05B4B1B6A5A4A23F001031362584B5A
:100DB0001B6A574A23F0040313627B68DB68002B2D
:100DC00015D0FFF7D1FB38610AE0FFF7CDFB0246F3
:100DD0003B69D31A41F28832934201D90323B1E02F
:100DE0004B4B1B6A03F00203002BEED014E0FFF71D
:100DF000BBFB38610AE0FFF7B7FB02463B69D31A39
:100E000041F28832934201D903239BE0404B1B6A95
:100E100003F00203002BEED1FB7D012B05D13C4BEF
:100E2000DB693B4A23F08053D3617B68DB69002B8D
:100E300000F08780364B5B6803F00C03082B61D011
:100E40007B68DB69022B46D1334B00221A60FFF727
:100E50008BFB386108E0FFF787FB02463B69D31A3A
:100E6000022B01D903236DE0294B1B6803F00073AB
:100E7000002BF0D17B681B6AB3F5803F08D1244B6F
:100E80005B6823F400327B689B68214913434B6005
:100E90001F4B5B6823F474127B68196A7B685B6A7A
:100EA0000B431B4913434B601B4B01221A60FFF796
:100EB0005BFB386108E0FFF757FB02463B69D31A3A
:100EC000022B01D903233DE0114B1B6803F0007393
:100ED000002BF0D035E0104B00221A60FFF744FBE6
:100EE000386108E0FFF740FB02463B69D31A022B4A
:100EF00001D9032326E0064B1B6803F00073002B87
:100F0000F0D11EE07B68DB69012B07D1012319E0DA
:100F10000010024000700040600042420B4B5B68D2
:100F2000FB60FB6803F480327B681B6A9A4206D13F
:100F3000FB6803F470127B685B6A9A4201D001235C
:100F400000E0002318461837BD4680BD001002405F
:100F500080B584B000AF786039607B68002B01D128
:100F60000123D0E06A4B1B6803F007033A689A42FA
:100F700010D9674B1B6823F0070265493B68134390
:100F80000B60634B1B6803F007033A689A4201D079
:100F90000123B8E07B681B6803F00203002B20D01C
:100FA0007B681B6803F00403002B05D0594B5B687A
:100FB000584A43F4E06353607B681B6803F00803FE
:100FC000002B05D0534B5B68524A43F46053536087
:100FD000504B5B6823F0F0027B689B684D491343DC
:100FE0004B607B681B6803F00103002B40D07B68DB
:100FF0005B68012B07D1474B1B6803F40033002BC0
:1010000015D101237FE07B685B68022B07D1414B40
:101010001B6803F00073002B09D1012373E03D4BE3
:101020001B6803F00203002B01D101236BE0394B55
:101030005B6823F003027B685B68364913434B60AF
:10104000FFF792FAF8600AE0FFF78EFA0246FB68B3
:10105000D31A41F28832934201D9032353E02D4B36
:101060005B6803F00C027B685B689B009A42EBD1E3
:10107000274B1B6803F007033A689A4210D2244BAF
:101080001B6823F0070222493B6813430B60204B87
:101090001B6803F007033A689A4201D0012332E04B
:1010A0007B681B6803F00403002B08D0194B5B68B6
:1010B00023F4E0627B68DB68164913434B607B686E
:1010C0001B6803F00803002B09D0124B5B6823F464
:1010D00060527B681B69DB000E4913434B6000F0D4
:1010E00021F802460B4B5B681B0903F00F030A490A
:1010F000CB5C22FA03F3094A1360094B1B681846BC
:10110000FFF7F0F9002318461037BD4680BD00BF39
:101110000020024000100240F828000800000020D3
:101120000400002080B487B000AF0023FB600023E0
:10113000BB6000237B6100237B6000233B611E4B6F
:101140005B68FB60FB6803F00C03042B02D0082BE8
:1011500003D027E0194B3B6127E0FB689B0C03F0B1
:101160000F03174AD35C7B60FB6803F48033002BCA
:1011700010D0114B5B685B0C03F00103114AD35C88
:10118000BB607B680D4A03FB02F2BB68B2FBF3F362
:101190007B6104E07B680C4A02FB03F37B617B69A3
:1011A0003B6102E0054B3B6100BF3B6918461C37C1
:1011B000BD4680BC704700BF0010024000127A009C
:1011C000102900082029000800093D0080B400AF64
:1011D000024B1B681846BD4680BC704700000020CB
:1011E00080B500AFFFF7F2FF0246054B5B681B0AB4
:1011F00003F007030349CB5C22FA03F3184680BDD2
:10120000001002400829000880B500AFFFF7DEFF9C
:101210000246054B5B68DB0A03F007030349CB5C1E
:1012200022FA03F3184680BD001002400829000886
:1012300080B485B000AF78600A4B1B680A4AA2FBF5
:1012400003235B0A7A6802FB03F3FB6000BFFB68C1
:101250005A1EFA60002BF9D100BF00BF1437BD46FB
:1012600080BC704700000020D34D621080B582B072
:1012700000AF78607B68002B01D1012342E07B68DE
:1012800093F84130DBB2002B06D17B68002283F853
:1012900040207868FFF770F87B68242283F84120AB
:1012A0007B681B68DA687B681B6822F40052DA608E
:1012B000786800F02BF87B681B681A697B681B68EC
:1012C00022F490421A617B681B685A697B681B682C
:1012D00022F02A025A617B681B68DA687B681B6807
:1012E00042F40052DA607B6800225A647B68202254
:1012F00083F841207B68202283F842207B6800220B
:101300005A63002318460837BD4680BD80B584B0B7
:1013100000AF78607B681B681B6923F440517B68D1
:10132000DA687B681B680A431A617B689A687B6885
:101330001B691A437B685B691343BB607B681B684E
:10134000DB6823F4B05323F00C037A681268B968A1
:101350000B43D3607B681B685B6923F440717B6837
:101360009A697B681B680A435A617B681B682C4A30
:10137000934203D1FFF748FFF86002E0FFF730FF28
:10138000F860FA6813469B0013449A001A447B687D
:101390005B689B00B2FBF3F3224AA2FB03235B09C9
:1013A0001901FA6813469B0013449A001A447B689B
:1013B0005B689B00B2FBF3F21A4BA3FB02035B09D1
:1013C000642000FB03F3D31A1B013233154AA2FB3E
:1013D00003235B0903F0F0031944FA6813469B00EA
:1013E00013449A001A447B685B689B00B2FBF3F2DB
:1013F0000C4BA3FB02035B09642000FB03F3D31A2D
:101400001B013233074AA2FB03235B0903F00F02DF
:101410007B681B680A449A6000BF1037BD4680BDD8
:10142000003801401F85EB5180B485B000AF034602
:10143000FB800023FB60B7F90630842B05D0B7F999
:101440000620FB6813440333FB60FB68184614371F
:10145000BD4680BC704780B500AF00F0DFFA0023C6
:10146000184680BDF0B589B004AF786039607B68FC
:101470005B69002B20D07B689B69002B1CD07B68AC
:101480005C687B681D687B681E697B68B3F90830FF
:101490001846FFF7C9FF01467B685B697A68926965
:1014A0000292019300913B6832462946204600F0A3
:1014B000E8F80346FB601CE07B685C687B681D689D
:1014C0007B681B699EB27B68B3F908301846FFF74A
:1014D000ABFF024607F10C03019300923B683246D2
:1014E0002946204600F02DF90346012B01D00023A8
:1014F00000E0FB6818461437BD46F0BD80B584B0E7
:1015000000AF78607B68FB60FB68002B01D0FB6854
:1015100000E00123184600F04BFA0023184610376C
:10152000BD4680BD80B483B000AF78607B6803F1B6
:1015300008027B685A607B684FF0FF329A607B68D4
:1015400003F108027B68DA607B6803F108027B68BC
:101550001A617B6800221A6000BF0C37BD4680BC50
:10156000704780B483B000AF78607B6800221A6156
:1015700000BF0C37BD4680BC704780B485B000AF5B
:10158000786039607B685B68FB603B68FA685A602A
:10159000FB689A683B689A60FB689B683A685A6087
:1015A000FB683A689A603B687A681A617B681B68D6
:1015B0005A1C7B681A6000BF1437BD4680BC704758
:1015C00080B485B000AF786039603B681B68BB6051
:1015D000BB68B3F1FF3F03D17B681B69FB600CE084
:1015E0007B680833FB6002E0FB685B68FB60FB68BC
:1015F0005B681B68BA689A42F6D2FB685A683B6817
:101600005A603B685B683A689A603B68FA689A601F
:10161000FB683A685A603B687A681A617B681B68A5
:101620005A1C7B681A6000BF1437BD4680BC7047E7
:1016300080B485B000AF78607B681B69FB607B6815
:101640005B687A6892689A607B689B687A6852687F
:101650005A60FB685B687A689A4203D17B689A6833
:10166000FB685A607B6800221A61FB681B685A1E7F
:10167000FB681A60FB681B6818461437BD4680BCBF
:10168000704780B58EB004AFF860B9607A603B6097
:101690007B6B002B0BD14FF0500383F31188BFF30A
:1016A0006F8FBFF34F8F3B6200BF00BFFDE7BB6B87
:1016B000002B0BD14FF0500383F31188BFF36F8FD2
:1016C000BFF34F8FFB6100BF00BFFDE754233B61B9
:1016D0003B69542B0BD04FF0500383F31188BFF3B9
:1016E0006F8FBFF34F8FBB6100BF00BFFDE73B694A
:1016F000BB6B002B1ED07B6B002B1BD0BB6B7B62AC
:101700007B6A7A6B1A637B6A022283F8512000237A
:1017100003937B6A029307F1140301933B6B0093DD
:101720003B687A68B968F86800F050F8786A00F0A9
:10173000D5F801E000237B617B6918462837BD4658
:1017400080BD80B58CB004AFF860B9603B601346D3
:10175000FB80FB889B00184600F092FE78617B6955
:10176000002B0ED0542000F08BFEF861FB69002B9B
:1017700003D0FB697A691A6305E0786900F04EFFCF
:1017800001E00023FB61FB69002B17D0FB690022FD
:1017900083F85120FA8800230393FB690293FB6AC4
:1017A0000193BB6A00933B68B968F86800F00EF8D3
:1017B000F86900F093F80123BB6102E04FF0FF33BA
:1017C000BB61BB6918462037BD4680BD80B588B077
:1017D00000AFF860B9607A603B603B6B1A6B7B6866
:1017E00003F18043013B9B001344BB61BB6923F0C1
:1017F0000703BB61BB6903F00703002B0BD04FF05D
:10180000500383F31188BFF36F8FBFF34F8F7B615A
:1018100000BF00BFFDE7BB68002B1FD00023FB61AA
:1018200012E0BA68FB69134419783A6BFB691344F8
:1018300034330A461A70BA68FB6913441B78002BCC
:1018400006D0FB690133FB61FB690F2BE9D900E08E
:1018500000BF3B6B002283F8432003E03B6B002278
:1018600083F83420BB6A062B01D90623BB623B6B8D
:10187000BA6ADA623B6BBA6A5A643B6B00229A64BA
:101880003B6B04331846FFF76CFE3B6B183318466E
:10189000FFF767FE3B6B3A6B1A61BB6AC3F1070245
:1018A0003B6B9A613B6B3A6B5A623B6B0022DA648A
:1018B0003B6B002283F850203A68F968B86900F061
:1018C0002BFC02463B6B1A60FB6A002B02D0FB6AC2
:1018D0003A6B1A6000BF2037BD4680BD80B582B02C
:1018E00000AF786000F00AFD2A4B1B680133294ADB
:1018F0001360294B1B68002B09D1274A7B681360B2
:10190000244B1B68012B10D100F0C4FA0DE0234BCF
:101910001B68002B09D1204B1B68DA6A7B68DB6AE5
:101920009A4202D81C4A7B6813601D4B1B68013326
:101930001B4A13607B68DB6A01229A40194B1B68C3
:101940001343184A13607B68DA6A13469B001344FA
:101950009B00154A1A447B68043319461046FFF76A
:101960000CFE00F0FBFC0D4B1B68002B0ED00A4B4D
:101970001B68DA6A7B68DB6A9A4207D20B4B4FF02E
:1019800080521A60BFF34F8FBFF36F8F00BF0837CD
:10199000BD4680BDD0030020D0020020DC03002023
:1019A000EC030020D8030020D402002004ED00E066
:1019B00080B584B000AF78600023FB607B68002BAB
:1019C00018D0144B1B68002B0BD04FF0500383F33F
:1019D0001188BFF36F8FBFF34F8FBB6000BF00BF95
:1019E000FDE700F07DF80021786800F02FFB00F0A3
:1019F00085F8F860FB68002B07D1074B4FF0805249
:101A00001A60BFF34F8FBFF36F8F00BF1037BD4613
:101A100080BD00BFF803002004ED00E080B58AB06F
:101A200004AF0023BB6000237B603A46391D07F1F9
:101A300008031846FEF78CFB39687B68BA68029287
:101A400001930023009300230A461F491F48FFF714
:101A500018FE03461E4A13601D4B1B68002B02D064
:101A600001237B6101E000237B617B69012B16D19F
:101A70004FF0500383F31188BFF36F8FBFF34F8F85
:101A80003B6100BF134B4FF0FF321A60124B012233
:101A90001A60124B00221A6000F0BEFB0FE07B6957
:101AA000B3F1FF3F0BD14FF0500383F31188BFF325
:101AB0006F8FBFF34F8FFB6000BF00BFFDE700BF1C
:101AC0001837BD4680BD00BFF0280008651E00081D
:101AD000F4030020F0030020DC030020D4030020E6
:101AE00080B400AF044B1B680133034A136000BF8E
:101AF000BD4680BC704700BFF803002080B584B0AD
:101B000000AF0023FB600023BB60424B1B68002B2F
:101B10000BD14FF0500383F31188BFF36F8FBFF3E6
:101B20004F8F3B6000BF00BFFDE700F0E7FB394B84
:101B30001B68013B374A1360364B1B68002B61D191
:101B4000354B1B68002B5DD02EE0344BDB68DB6827
:101B5000FB60FB6818331846FFF76AFDFB68043327
:101B60001846FFF765FDFB68DB6A01229A402C4BA3
:101B70001B6813432A4A1360FB68DA6A13469B000A
:101B800013449B00274A1A44FB6804331946104645
:101B9000FFF7F3FCFB68DA6A234B1B68DB6A9A42A7
:101BA00002D3224B01221A601C4B1B68002BCCD1A4
:101BB000FB68002B01D000F00BFA1D4B1B687B600B
:101BC0007B68002B10D000F037F80346002B02D0C2
:101BD000164B01221A607B68013B7B607B68002BFF
:101BE000F1D1134B00221A60104B1B68002B09D057
:101BF0000123BB600F4B4FF080521A60BFF34F8F31
:101C0000BFF36F8F00F0AAFBBB6818461037BD46C4
:101C100080BD00BFF8030020D00300209003002007
:101C2000D8030020D4020020D0020020E4030020CA
:101C3000E003002004ED00E080B586B000AF002393
:101C40007B614F4B1B68002B40F08F804D4B1B6816
:101C500001333B614B4A3B6913603B69002B21D147
:101C6000494B1B681B68002B0BD04FF0500383F3CC
:101C70001188BFF36F8FBFF34F8F3B6000BF00BF72
:101C8000FDE7414B1B68FB60404B1B683E4A1360FD
:101C90003E4AFB6813603E4B1B6801333C4A1360AD
:101CA00000F096F93B4B1B683A699A4248D3364B91
:101CB0001B681B68002B04D1364B4FF0FF321A60B3
:101CC0003EE0314B1B68DB68DB68BB60BB685B6870
:101CD0007B603A697B689A4203D22E4A7B68136024
:101CE0002EE0BB6804331846FFF7A2FCBB689B6A72
:101CF000002B04D0BB6818331846FFF799FCBB686B
:101D0000DB6A01229A40244B1B681343224A13606A
:101D1000BB68DA6A13469B0013449B001F4A1A44AF
:101D2000BB68043319461046FFF727FCBB68DA6A24
:101D30001B4B1B68DB6A9A42B9D301237B61B6E770
:101D4000174B1B68DA6A154913469B0013449B0026
:101D50000B441B68012B01D901237B61114B1B68CC
:101D6000002B07D001237B6104E00F4B1B6801337C
:101D70000D4A13607B6918461837BD4680BD00BF09
:101D8000F8030020D4030020880300208C030020E7
:101D9000E8030020F0030020D8030020D402002034
:101DA000D0020020E4030020E003002080B487B0CC
:101DB00000AF274B1B68002B03D0264B01221A6073
:101DC00040E0244B00221A60234B1B68FB60FB6839
:101DD000B3FA83F3FB72FB7AC3F11F037B611F49E4
:101DE0007A6913469B0013449B000B441B68002B2D
:101DF0000BD14FF0500383F31188BFF36F8FBFF304
:101E00004F8F7B6000BF00BFFDE77A6913469B00E0
:101E100013449B00114A13443B613B695B685A6859
:101E20003B695A603B695A683B6908339A4204D15E
:101E30003B695B685A683B695A603B695B68DB6871
:101E4000074A136000BF1C37BD4680BC704700BF07
:101E5000F8030020E4030020D8030020D40200206F
:101E6000D002002080B582B000AF786000F052F858
:101E7000064B1B68012BF9D9054B4FF080521A60B5
:101E8000BFF34F8FBFF36F8FF0E700BFD402002086
:101E900004ED00E080B582B000AF00237B600CE071
:101EA0007A6813469B0013449B00124A1344184659
:101EB000FFF738FB7B6801337B607B68062BEFD92B
:101EC0000D48FFF72FFB0D48FFF72CFB0C48FFF7E1
:101ED00029FB0C48FFF726FB0B48FFF723FB0B4BB6
:101EE000054A1A600A4B054A1A6000BF0837BD460A
:101EF00080BD00BFD40200206003002074030020D6
:101F000090030020A4030020BC03002088030020CD
:101F10008C03002080B582B000AF19E000F0EEF92C
:101F2000104BDB68DB687B607B6804331846FFF787
:101F30007FFB0D4B1B68013B0B4A13600B4B1B686F
:101F4000013B0A4A136000F009FA786800F010F8C3
:101F5000064B1B68002BE1D100BF00BF0837BD4610
:101F600080BD00BFA4030020D0030020B8030020E0
:101F700080B584B000AF78607B6893F85130002B57
:101F800008D17B681B6B184600F048FB786800F0AE
:101F900045FB19E07B6893F85130012B03D1786839
:101FA00000F03CFB10E07B6893F85130022B0BD023
:101FB0004FF0500383F31188BFF36F8FBFF34F8F40
:101FC000FB6000BF00BFFDE700BF1037BD4680BD0E
:101FD00080B483B000AF0C4B1B681B68002B04D18E
:101FE0000A4B4FF0FF321A6008E0074B1B68DB68B2
:101FF000DB687B607B685B68044A136000BF0C375A
:10200000BD4680BC704700BF88030020F00300205D
:1020100080B483B000AF0B4B1B68002B02D10123AF
:102020007B6008E0084B1B68002B02D102237B6019
:1020300001E000237B607B6818460C37BD4680BCFE
:10204000704700BFDC030020F803002080B584B097
:1020500000AF78603960294B1B68FB60284B1B6818
:1020600004331846FFF7E4FA0346002B0BD1244B48
:102070001B68DB6A012202FA03F3DA43214B1B6877
:102080001340204A13607B68B3F1FF3F0AD13B68DD
:10209000002B07D01A4B1B68043319461A48FFF768
:1020A0006CFA26E0FA687B681344BB60144B1B682B
:1020B000BA685A60BA68FB689A4209D2134B1A6828
:1020C0000F4B1B68043319461046FFF779FA10E0EE
:1020D0000F4B1A680A4B1B68043319461046FFF76A
:1020E0006FFA0C4B1B68BA689A4202D2094ABB6865
:1020F000136000BF1037BD4680BD00BFD403002071
:10210000D0020020D8030020BC0300208C03002054
:1021100088030020F003002080B485B000AFF86091
:10212000B9607A60FB68043BFB60FB684FF080722B
:102130001A60FB68043BFB60BB6823F00102FB688C
:102140001A60FB68043BFB60084AFB681A60FB6886
:10215000143BFB607A68FB681A60FB68203BFB60FD
:10216000FB6818461437BD4680BC704771210008D3
:1021700080B485B000AF00237B60124B1B68B3F1C5
:10218000FF3F0BD04FF0500383F31188BFF36F8FE5
:10219000BFF34F8FFB6000BF00BFFDE74FF0500360
:1021A00083F31188BFF36F8FBFF34F8FBB6000BF06
:1021B00000BF7B68002BFCD000BF00BF1437BD46BA
:1021C00080BC70470C0000200000000000000000F0
:1021D000074B19680868B0E8F00F80F30988BFF36F
:1021E0006F8F4FF0000080F311884EF00D0E704796
:1021F000D002002000BF00BF06480068006880F3DE
:10220000088862B661B6BFF34F8FBFF36F8F00DFF0
:1022100000BF00BF08ED00E080B584B000AF324BD6
:10222000FB60FB681B78DBB27B60FB68FF221A70E7
:10223000FB681B78DBB2FB70FB78DBB203F050036A
:10224000DAB22A4B1A702A4B07221A6009E0284B8F
:102250001B68013B264A1360FB78DBB25B00DBB2F4
:10226000FB70FB78DBB203F08003802BEFD0204BB8
:102270001B68C3F10703042B0BD04FF0500383F30B
:102280001188BFF36F8FBFF34F8FBB6000BF00BFDC
:10229000FDE7174B1B681B02154A1360144B1B68A4
:1022A00003F4E063124A13607B68DAB2FB681A70C9
:1022B000104B1B680F4A43F4700313600D4B1B68EF
:1022C0000C4A43F07043136000F0B8F80A4B002248
:1022D0001A60FFF791FFFFF769FDFFF749FF002341
:1022E00018461037BD4680BD00E400E0FC03002026
:1022F0000004002020ED00E00C00002080B483B03A
:1023000000AF4FF0500383F31188BFF36F8FBFF31B
:102310004F8F7B6000BF0F4B1B6801330D4A13606A
:102320000C4B1B68012B10D10B4B1B68DBB2002B35
:102330000BD04FF0500383F31188BFF36F8FBFF3BF
:102340004F8F3B6000BF00BFFDE700BF0C37BD46AD
:1023500080BC70470C00002004ED00E080B483B026
:1023600000AF124B1B68002B0BD14FF0500383F3CF
:102370001188BFF36F8FBFF34F8F7B6000BF00BF2B
:10238000FDE70A4B1B68013B084A1360074B1B68BB
:10239000002B05D100233B603B6883F3118800BF0D
:1023A00000BF0C37BD4680BC704700BF0C0000204A
:1023B000EFF30980BFF36F8F0D4B1A6820E9F00F20
:1023C00010602DE908404FF0500080F31188FFF7AE
:1023D000EDFC4FF0000080F31188BDE8084019685B
:1023E0000868B0E8F00F80F30988BFF36F8F70477B
:1023F000D002002000BF00BF80B582B000AF4FF018
:10240000500383F31188BFF36F8FBFF34F8F7B604F
:1024100000BFFFF711FC0346002B03D0064B4FF023
:1024200080521A6000233B603B6883F3118800BF31
:1024300000BF0837BD4680BD04ED00E080B400AFAA
:102440000A4B00221A600A4B00221A60094B1B68D3
:10245000094AA2FB03239B09084A013B1360034B73
:1024600007221A6000BFBD4680BC704710E000E044
:1024700018E000E000000020D34D621014E000E0FE
:1024800080B58AB000AF78600023FB61FFF728FBBE
:102490005C4B1B68002B01D100F024F95A4B1A68E1
:1024A0007B681340002B40F095807B68002B1ED08A
:1024B00008227B6813447B607B6803F00703002BD2
:1024C00015D07B6823F0070308337B607B6803F03B
:1024D0000703002B0BD04FF0500383F31188BFF399
:1024E0006F8FBFF34F8F7B6100BF00BFFDE77B683D
:1024F000002B6FD0454B1B687A689A426AD8444BD0
:102500003B62434B1B687B6204E07B6A3B627B6AF5
:102510001B687B627B6A5B687A689A4203D97B6A34
:102520001B68002BF1D1374B1B687A6A9A4251D055
:102530003B6A1B6808221344FB617B6A1A683B6A8A
:102540001A607B6A5A687B68D21A08235B009A4239
:1025500020D97A6A7B681344BB61BB6903F0070327
:10256000002B0BD04FF0500383F31188BFF36F8F14
:10257000BFF34F8F3B6100BF00BFFDE77B6A5A6826
:102580007B68D21ABB695A607B6A7A685A60B869FC
:1025900000F00AF91D4B1A687B6A5B68D31A1B4A64
:1025A00013601A4B1A681B4B1B689A4203D2174BD5
:1025B0001B68184A13607B6A5A68134B1B681A43DE
:1025C0007B6A5A607B6A00221A60134B1B680133D6
:1025D000114A1360FFF792FAFB6903F00703002B1F
:1025E0000BD04FF0500383F31188BFF36F8FBFF30D
:1025F0004F8FFB6000BF00BFFDE7FB69184628371F
:10260000BD4680BD0C1000202010002010100020BE
:1026100004100020141000201810002080B586B08F
:1026200000AF78607B687B617B68002B4FD008230C
:102630005B427A6913447B617B693B613B695A6801
:10264000254B1B681340002B0BD14FF0500383F335
:102650001188BFF36F8FBFF34F8FFB6000BF00BFC8
:10266000FDE73B691B68002B0BD04FF0500383F351
:102670001188BFF36F8FBFF34F8FBB6000BF00BFE8
:10268000FDE73B695A68144B1B681340002B1ED0B2
:102690003B691B68002B1AD13B695A680E4B1B68BB
:1026A000DB431A403B695A60FFF71AFA3B695A68E4
:1026B0000A4B1B681344094A1360386900F074F828
:1026C000074B1B680133064A1360FFF717FA00BF78
:1026D0001837BD4680BD00BF20100020101000201C
:1026E0001C10002080B485B000AF4FF44063BB6085
:1026F000274BFB60FB6803F00703002B0CD0FB6843
:102700000733FB60FB6823F00703FB60BA68FB68D4
:10271000D31A1F4A1344BB60FB687B601D4A7B6869
:1027200013601C4B00225A607B68BA681344FB603C
:102730000822FB689B1AFB60FB6823F00703FB6021
:10274000FB68154A1360144B1B6800225A60124B39
:102750001B6800221A607B683B603B68FA68D21AEB
:102760003B685A600C4B1A683B681A603B685B68B0
:102770000A4A13603B685B68094A1360094B4FF0D3
:1027800000421A6000BF1437BD4680BC704700BFCE
:1027900004040020041000200C100020141000205D
:1027A000101000202010002080B485B000AF7860A9
:1027B000274BFB6002E0FB681B68FB60FB681B6843
:1027C0007A689A42F7D8FB68BB60FB685B68BA68B6
:1027D00013447A689A4208D1FB685A687B685B6840
:1027E0001A44FB685A60FB687B607B68BB607B684F
:1027F0005B68BA681A44FB681B689A4218D1FB6888
:102800001A68144B1B689A420DD07B685A68FB68A3
:102810001B685B681A447B685A60FB681B681A680F
:102820007B681A6008E00B4B1A687B681A6003E04B
:10283000FB681A687B681A60FA687B689A4202D063
:10284000FB687A681A6000BF1437BD4680BC7047C9
:10285000041000200C10002003460244934200D1D3
:10286000704703F8011BF9E770B500260C4D0D4CBD
:10287000641BA410A64209D100F01AF800260A4DE4
:102880000A4C641BA410A64205D170BD55F8043B48
:1028900098470136EEE755F8043B98470136F2E7D2
:1028A00024290008242900082429000828290008D0
:1028B000F8B500BFF8BC08BC9E467047F8B500BF2D
:0828C000F8BC08BC9E467047FD
:1028C80044656661756C745461736B00C8280008B0
:1028D800ED02000800000000000000008000000079
:1028E800000000000000000049444C4500000000C2
:1028F80000000000000000000102030406070809A8
:102908000000000001020304020304050607080989
:0C2918000A0B0C0D0E0F10100102000045
:042924003501000871
:042928001101000891
:10292C0000127A001000000001000000AAAAAAAA56
:040000050800046D7E
:00000001FF
